:100000006F30505E1300000013000000130000006A
:100010001300000013000000130000001300000094
:100020001300000013000000130000001300000084
:08003000130000007300100032
:1000380000000000000000009A2C00009E2C000028
:10004800000000007C3D00000000000000000000EF
:100058007E3D0000803D0000000000000000000020
:10006800823D000000000000843D00000000000008
:10007800863D0000883D00008A3D00008C3D000060
:100088008E3D0000903D0000923D0000943D000030
:10009800963D0000A02C00009A3D00009C3D000009
:1000A8009E3D0000A03D0000A23D0000A43D0000D0
:1000B800A63D0000A83D0000AA3D0000AC3D0000A0
:1000C800AE3D0000B03D0000B23D0000B43D000070
:1000D800B63D0000B83D0000BA3D0000BC3D000040
:1000E800A63B0000B8020000C03B0000C43D000071
:1000F800C63D0000C83D0000CA3D0000CC3D0000E0
:10010800CE3D0000D03D0000D23D0000D43D0000AF
:10011800D63D0000D83D0000DA3D0000DC3D00007F
:10012800DE3D0000E03D0000E23D00000000000070
:080138000000000000000000BF
:10014000397101436EC619A0397141536AC866CA34
:1001500062CC5ECE19A0397101535AD056D252D416
:100160004ED64AD826DA22DC06DE3301614082828E
:1001700041114AC026C222C406C68282B24D410144
:10018000024D924C224CB24B4101024B924A224A00
:10019000B2494101024992442244B2404101828065
:1001A0003D432A876373C3029377F700BDEFADE544
:1001B000937606FF3D8ABA960CC34CC30CC74CC756
:1001C0004107E36BD7FE11E28280B306C3408A0683
:1001D0009702000096966780A6002307B700A30643
:1001E000B7002306B700A305B7002305B700A30493
:1001F000B7002304B700A303B7002303B700A3028B
:10020000B7002302B700A301B7002301B700A30082
:10021000B7002300B700828093F5F50F9396850011
:10022000D58D93960501D58D61B7939627009702DA
:10023000000096968682E78086FA9680C1171D8F09
:100240003E96E374C3F8A5B7EFF29FF20111AA84BA
:100250002E840945854502CA02CC231E010002C630
:1002600002C8EF30B07DE082370400404C0813052F
:100270000440E484231D0100231B0100EF30F07DC6
:100280000546854513050440EF4040059307D0120D
:100290007C8689475C87680085473EC8EF30705E82
:1002A000854513050440EF40E001B7E700E009672A
:1002B00023A2E7100561F9BD411122C637040040B1
:1002C000854513050440EF40800245C5854513056B
:1002D0000440EF404003372700209306C7A8902230
:1002E000894763F8C70890328D45DC326315B60440
:1002F00013074044B387E7023707002013078753EB
:100300008146BA9703C807006305D806A8273E862A
:10031000014709A88345360205071377F70F8505BE
:10032000A301B6020506E317E5FE850693F6F60F70
:1003300093870711D1BFA545631DB602130540443D
:10034000B387A702370600209305865303C36600D0
:100350001307C7A8814613058653094E8D4E130F08
:100360004044AE9783C5470285052382B7026316D2
:10037000D30032444101730020307C336374FE04A7
:100380001C276391D7055C278145B387E703AA97AC
:1003900083C207006388B20283CFA7003E8801466C
:1003A00009A88348380205061376F60F8508A301CD
:1003B00018030508E397CFFE850593F5F50F93879E
:1003C0000711C9BF850693F6F60F19074DB75821D7
:1003D000A1466305D700FC256395D700A1471CA261
:1003E00082809D466304D7006394D7009D47C5BFB4
:1003F0008D466304D7006394D7008D47CDB7A546DB
:100400006304D7006394D700A547D1BFFD57C1BF90
:10041000EFF21FD3376500003724002001111305C8
:10042000859C1304C4A8EF4060308144938A41CB7B
:10043000376B0000930B140013054006EF40A0013A
:10044000850493F4F40F214533159500EF40A00087
:100450000145EF10D01401498149930C3400194D26
:10046000130C40066685EF10901819E5850993F97D
:10047000F90F636A3D110149050942090545135900
:100480000901EF30507DE31F89FD9547E3F697FAA8
:10049000D94521A8376500001305859EEF40C01798
:1004A0009547E3FB97F8930550042E850561F9B154
:1004B000376C000013054C9FEF4040271545230182
:1004C0002401EF305079376500001305859FEF4018
:1004D000A01448209385418B9306E1011306004048
:1004E000EF10F041AA85938D418B35E503CD5D007A
:1004F0000149BC876365F90413854C9BEF400023D9
:100500005E869385418B5685D9350C303765000062
:10051000130585A0EF40401037650000130585A145
:10052000EF40800F4820EA85EF10504DAA8521E169
:100530002AC613054C9FEF40601FB245BDB7B38775
:100540002D018C23050913050B9D4209EF40C00CBA
:100550001359090179BF376500001305859EEF40E7
:10056000A00B9547E3FA97EC930570043DBF376500
:1005700000001305859EEF40200A9547E3FE97EAA9
:100580009305B00F1DB737650000130545A2EF4076
:10059000A008938541CB13054400EF103032AA85A3
:1005A000E31A05EE0149C949B3872A018C231305D3
:1005B0000B9D0509EF404006E31839FFB76C0000BA
:1005C00013854C9BEF408016376500001305859D11
:1005D000EF40800448208945094923012401EF1098
:1005E000703EAA85E30605EC376500001305859E7D
:1005F000EF4080029547E3F197E49305600475B5F9
:10060000EFF29FB4130A4044330A4503B7090020B0
:10061000938989532A8CAE8A814401441389418B82
:10062000894B338B49018347390003472900A207CF
:10063000BA976350F41CB3078900983363127703A9
:10064000DC231147637BF7002300EB00B30789002D
:100650009C233E9442044180F9B72300FB00FDB780
:100660009146E317D7FE6386E418D4330D476392AF
:10067000E616F823854663EFE612F83363ECEB12D7
:10068000631FD70A93070011B387F402D297CE975E
:10069000D8A381460146A6855685EF206024B3077E
:1006A00089009C2313088008130720223E94930797
:1006B0000011B387F4028348290042044180814637
:1006C00001451143154E930E100233880403D2974F
:1006D000CE973307EC023A9833078900103363084A
:1006E000660A6376140B0C232E944204418063182F
:1006F000C60950332C23034F4700220693F2F5001E
:100700007A96E2054206E185834F3700418263D342
:1007100005047823338FA700B305A8002300EF0258
:10072000B827A1058605CE9505070505A3055F0039
:10073000A307FF01D2A1B8A71375F50F71BFE3108E
:1007400077F793070011B387F402D297CE972382ED
:10075000770181B73387D700A3045702A306F703B5
:100760003307D800410706074E9732AB03C787020D
:10077000850693F6F60F05072384E702B1BFE31D54
:10078000D6F5102778332206518FFAA3B1B78547E3
:10079000639EF60093070011B387F402D297CE97B9
:1007A000D8236315D7007D572381E704850493F48C
:1007B000F40F95BD93070011B387F4027D57D297CC
:1007C000CE97D8A3B30789009C233E94420441806E
:1007D000F1BF13070011B384E40213074044B707C5
:1007E0000020330CEC02269C93848753E294FD573F
:1007F000DCA0014571B283C6418B95476397F6181B
:100800001387418B143385476391F6183423A5472A
:10081000639DF616343399476399F61693060011D3
:100820001308404433080503B70800201386885393
:10083000011122CE26CC4ACA4EC852C656C4B3862F
:10084000D5025AC25EC091470143814E014F014E0D
:10085000938888531144C2963696835366000148A4
:10086000930F000793040008930200092149C1492E
:10087000130A0002854A63E07704A147631AF30E66
:100880009307001113074044B387F5023307E502CD
:10089000BA97B385F80083C7250481E7854723818C
:1008A000F5047244E2445249C249324AA24A124B08
:1008B000824B05618280B306F70094228507C20748
:1008C00093FBC60013FB3600C18393F6060F638DBE
:1008D0008B02638B2B0763950B02639356026301B4
:1008E0000802B386EE0336934203135303016309F0
:1008F0000E008346E60389E6230F5603A30FC603C3
:10090000DA97C207C18385BF638BF60363EBDF0011
:10091000E5FAB306F70003C806006118133818009B
:10092000C5B763899600E39D56FCB306F70083CEF6
:100930000600F9B7B306F70003CE0600D1B7B30639
:10094000F70003CF06006DBF638C3601E39A46FBC8
:10095000E30808FAB306F7009422A300D6044DB7C3
:10096000E30008FAB306F70094222300D60449BF37
:1009700093070011B387F502930540443305B50290
:10098000AA97C6972381070429BF8280EFF24FFB05
:10099000930A4044B30A5503B7090020938789534B
:1009A0004111AA8BAE8D014A93898953138D418BD6
:1009B000D69703C90700568C3EC46307090CA247AB
:1009C000130400118423B384244193F4F40F33847B
:1009D0008402B3078401CE97FE23C1CB5694130B38
:1009E00064004E9BB7670000A6851385C78BEF3068
:1009F000B042A685DA861386418B6E85050AEF1014
:100A0000B068137AFA0FAA852DE5130B0011338B0A
:100A100064038147629B4E9B29A83307FD000C238A
:100A20001385069D3EC6EF30303FB2478507C207AB
:100A3000C18303576B00B7660000E3E0E7FE37654C
:100A400000001305459BEF30704EA6855E8565332B
:100A500083556B00130664044E966A85EF101028C8
:100A6000130544084E95EF3000187D191379F90FDE
:100A7000A9B7B76700001385879EEF30F039954717
:100A8000E3F247F7130980044A8541016FF00FEF45
:100A9000130740443305E5029387418BB033BC23F1
:100AA000B70600202206938686533E969385418B97
:100AB000814709431148254E954E3695854863C4B4
:100AC000C700014582803387F500034F07001433C8
:100AD000FA97C207C183639A6600582363F5E8005A
:100AE00023001501E9BF18A1D9BFE39A06FD5833C9
:100AF000E317C7FD3387F5001433E38206FDE3D027
:100B0000C7FC034F0700FA97C207C183E394D6FFDF
:100B10003423139F8601135F8F41E35D0FFCBD8A71
:100B200034B53433034F470074B554337823A206E9
:100B30002300E5023825FA9656A9050738A55DBFBA
:100B4000EFF26FE13765000041111305458EEF307C
:100B5000F03D376500001305058FEF30F02B37248B
:100B600000209307C4A8C8332537AA89631A05262D
:100B7000376500001305459FEF30503B9387418B4D
:100B8000FC231304C4A89384418B95CF37650000E0
:100B900013054590EF305028EC2048201386418BF8
:100BA000EF10A05CAA8563180512376A0000982030
:100BB00093970901C18363E7E710376500001305C8
:100BC000459BEF30B036938741CBFC27938941CBCF
:100BD000A1C33765000013058591EF30F02383C56D
:100BE000E90048201386418B014AEF100058AA857E
:100BF00063130510B76A0000982093170A01C18398
:100C000063E2E70E376500001305459BEF301032B5
:100C100083C7F900A1C3376500001305C592EF3003
:100C2000B01F83C5F90048201386418B014AEF109D
:100C3000C053AA856311050EB76A00009820931768
:100C40000A01C18363E0E70C376500001305459B8B
:100C5000EF30D02D83C709019DCF37650000130504
:100C60000594EF30701B83C5090148201386418B22
:100C70008149EF10804FAA855DED376A000098200A
:100C800093970901C18363EFE708376500001305F7
:100C9000459BEF30B0293765000013054595EF30CF
:100CA000B017154AB76A000048201306E100938583
:100CB000418BEF10304EAA89631405100149376A41
:100CC000000061A8B38734018C2313050A9D8509B0
:100CD000EF309014E9BD376500001305859EEF30B5
:100CE000B013D5B5B38744018C2313850A9D050A3B
:100CF000EF30901211B7376500001305859EEF3075
:100D0000B01139B7B38744018C2313850A9D050AB6
:100D1000EF30901025B7376500001305859EEF3042
:100D2000B00F0DBFB38734018C2313050A9D8509CD
:100D3000EF30900EA9B7376500001305859EEF30A0
:100D4000B00D91BFB38724018C23050913050A9DBB
:100D50004209EF30700C135909013C87E364F9FE36
:100D6000376500001305459BEF30501CB8209147B4
:100D700063E6E70478A06C2037650000130545960C
:100D8000EF30900901498544114A7C2063E69704BD
:100D90004820214693F5F40FEF10303D01CDFD14AE
:100DA00005091545C2041379F90FEF30C06AC180F7
:100DB00063622A038504C204C180C1BF7CA065BFF1
:100DC0007D1ACE8513858A9E137AFA0FEF30D004F0
:100DD000E31C0AEC9309E00F4E8541016FF0EFBA76
:100DE000AA85376500001305859EEF30F002EDB748
:100DF000EFF26FB69C214111B3D7A740858B99E7DD
:100E00001304E00F228541016FF02FB8372900202D
:100E10009309C9A8AA85AA8403C5490070001309CB
:100E2000C9A8EF10F02E2A8409C9AA8537650000E9
:100E300013050582EF30407EF1B71C87858BE9D31F
:100E400003C549004146A685EF10902F2A84294A00
:100E500019CDAA853765000013054583E1BF1C87BE
:100E600005041374F40F858B85C7E30B44F9034520
:100E700049007000A685EF10B029AA896DD1AA8516
:100E80003765000013058584EF3000794E849DBFDF
:100E9000A947E307F4F61C86858BBDF33765000090
:100EA000A6851305C585EF3020775944A1BFEFF221
:100EB0008FAA9C214111B3D7A740858B99E71304D2
:100EC000E00F228541016FF04FACB72900209387D6
:100ED000C9A8AA852A89C82311469389C9A8EF10F1
:100EE000D0282A8409C9AA8537650000130505871B
:100EF000EF308072F9B72945EF30E0552D4A03C530
:100F000049007000CA85EF10B020AA8411C9AA85D3
:100F10003765000013054588EF300070268455B70B
:100F20001C8705041374F40FC18B85EBE31944FD92
:100F300003C549005146CA85EF1090202D4A03C5CC
:100F400049007000CA85EF10B01C2A8419C9AA850F
:100F5000376500001305858961BFA947E301F4F6F1
:100F6000C1BF1C87850493F4F40FC18B99CFE3981C
:100F700044FD1C86858BA1D737650000CA85130503
:100F8000C58AEF30606955442DBFA947E389F4F263
:100F9000CDB7EFF2EF9DB72700202E842E86AA85CD
:100FA00003C507A9EF10D01611E91C3013F727006D
:100FB00011E713F547003335A00005056FF08F9D4D
:100FC000EFF28F982A8937650000411113050598C3
:100FD0002E8C328AEF3080759947B307F902372497
:100FE00000209309C4A8A9441304C4A8DA8AB76BE3
:100FF0000000AD07BE99938541CB4E85EF10000CE4
:10100000AA855DE1B76900008144938C41CBC94B4F
:101010004E8BB3879C008C231385099D8504EF308C
:10102000A05FE39874FF9944B3049902B769000084
:101030001385499BEF30806F376500001305459994
:10104000EF30C06EA94BB76C0000A294CC24A8343A
:10105000890593F5F50FEF10E016AA853DE1994B50
:10106000B30B7903DC24154589072300FC00EF301E
:10107000803E376500001305459AEF30206BA94488
:10108000A29B668C376D000003C5BB009385418B26
:101090009306E10013060040EF106006AA8555EDA7
:1010A0008144938B418BA1A0FD1413858B9E93F4F7
:1010B000F40FEF306056A1F01305500441016FF0BA
:1010C0002F8CFD1B13858C9E93FBFB0FEF30C054C0
:1010D000E39E0BF613056004D5B7B3879B008C2302
:1010E000850413050B9DC204EF300053C1803C877B
:1010F000E3E5F4FE1385499BEF3040635286938508
:10110000418B138541CB83C95B00EFF04FAC834526
:101110000A0037650000130585A0EF30E04F376502
:1011200000001305859BEF30606099473309F90291
:10113000A9444A94376900002834CE85EF10000C8A
:1011400035DDFD14AA8593F4F40F1305899EEF3065
:10115000A04CFDF01305900495B7FD1413058D9E6A
:1011600093F4F40FEF30404BE39004F2B1B7EFE2A9
:101170003FFD130D0011338DA50393054044B707C0
:1011800000203289368C8549094B8D4B3305B502D9
:101190006A95138D87532A9D034A0D0483443D04A9
:1011A000834A1D04D28D33844D411374F40F834C54
:1011B0003D0463FABA01338494413334800023023E
:1011C0008D046FE0BFFB639F3D0162869305300590
:1011D0004A85EF30C03733948D0005E1850D93FDCE
:1011E000FD0FD1B763906D036286930590034A8526
:1011F000EF30E03565D53394890033449401A30181
:101200008D04E9BFE39C7DFD628693057004C5B73C
:10121000EFE21FF6AA86130840442E85B285130616
:1012200000113388060337070020930787534111C5
:10123000130787533386C5024296B29703C8E70364
:1012400003C637046300080483C7F703D0865C86AF
:101250008947130640447C8793070011B386C60272
:101260008548B387F5023388D7003A9803462804A7
:10127000631D16019306E1007000EF10C063410189
:101280006FE05FF150868547E9B79305F00F0145A0
:10129000E317B6FE9387A703B697034598023487F2
:1012A0007000B305F700EF00B07ED1BFEFE2DFE9D9
:1012B000AA8A376500001305858D2E8AEF30004716
:1012C000376500001305058FEF300035D285568550
:1012D000EFF00FB32A8B6315051E37650000130569
:1012E000459FEF30A0449387418BFC231384418BAF
:1012F0009DCB3765000013054590EF30E0316C2041
:101300001386418B5285EF005066AA84631805103E
:10131000B76900001C2063E8F40E37650000130570
:10132000459BEF30A040D2855685EFF02FE693879E
:1013300041CBFC27938441CB9DCB3765000013053F
:101340008591EF30602DEC241386418B5285EF00A0
:10135000D061AA896317050EB76B00001C2063E7F4
:10136000F90C376500001305459BEF30203CFC3439
:101370009DCB376500001305C592EF30E029EC34B2
:101380001386418B5285EF00505EAA89631E050CBF
:10139000B76B00001C2063EEF90A376500001305E7
:1013A000459BEF30A0389C2895CB3765000013058E
:1013B0000594EF3060268C281386418B5285EF0010
:1013C000D05AAA8469E5376900001C2063E6F40A54
:1013D000376500001305459BEF30403593044044CA
:1013E000B3849A0237090020130989530144930BEF
:1013F0000011054CB389240183C709006361F40A15
:101400005A856FE0FFD7B30794008C231385099D9D
:101410008504EF30602093F4F40FEDBDAA853765A5
:1014200000001305859EEF30201FF5BDB307340182
:101430008C2313850B9D8509EF30001E93F9F90F5E
:1014400031BFAA85376500001305859EEF30C01CAB
:1014500039BFB30734018C2313850B9D8509EF3009
:10146000A01B93F9F90F3DB7AA8537650000130556
:10147000859EEF30601A05BFB30794008C231305D7
:10148000099D8504EF30401993F4F40F3DBFAA8500
:10149000376500001305859EEF30001881B7B3074C
:1014A0007403A697CA97D82363188701A3810704FA
:1014B0002286D2855685A93B05041374F40F2DBFEF
:1014C000AA85376500001305859EEF30E0140DBF37
:1014D000EFE21FC7372C00200345CCA801111304ED
:1014E000CCA8EF00D0038547AA846310F5183765B0
:1014F0000000130545A3EF30602304A0A3020400FD
:10150000EFE01FF1AA84631605141C300D476395A4
:10151000E70437650000130585A4EF30E00F4C2089
:10152000483069332A8937650000130505A6EF3076
:10153000A00E631F0902376500001305459FEF30B9
:10154000E01E8D471CA0014637150140A14513053B
:101550000580EF20702D15A8254963982709376568
:101560000000130585A7EF30200BEFF06FDD5DBFA6
:10157000D944630C990037650000CA851305859E20
:10158000EF30800989471CA0CA841820894763FD71
:10159000E72E1C300D4703495400639FE72A130BC5
:1015A0004044330B6903B70B002093878B53014AE8
:1015B000938B8B53DA973EC05AC4BE8C83C70C0002
:1015C0006374FA2C93070011B307FA0213074B0850
:1015D000814A3E975E973AC22247B389E7001307D4
:1015E000CB01BA97DE993EC659AA376500001305AC
:1015F00005A9EF3060021C302147638BE702636E60
:10160000F7001D47638DE702376500001305C5AC81
:10161000EF30C0118D471CA08DBF638727031307D0
:10162000F00FE393E7FE37650000130505AC29A032
:1016300037650000130505AAEF20107EF1B7376566
:1016400000001305C5AACDBF37650000130585ABA3
:10165000E5B7D947E30BF5F2AA8537650000130516
:1016600085ADEF20707B89477DB705F137650000B8
:10167000130585AFEF30800B7D460349540081454B
:101680001305CCA8EFE0DFB1130540443309A902EC
:1016900037050020130585531306404481454A95BC
:1016A000EFE01FB005464DB5338D590103474D029C
:1016B00083460D026362D70C3377D702B2470345E6
:1016C000BD009306E101B38557011386418BDE957A
:1016D0002302ED02EF005037AA84631C050CB0878B
:1016E00012459385418B2388C910EF2040563765FA
:1016F0000000CA851305C5B0EF20107283D5890894
:1017000037650000130585B1EF20107183D5A90856
:10171000376500001305C5B2EF20107083D569044A
:1017200037650000130505B48D89EF20F06EAC8796
:1017300037650000130585B5EF20106E814DBC871D
:1017400063EAFD04376500001305459BEF20107E1A
:1017500003C7490085476311F702B4871386418B9D
:10176000D2854A85EFF0BFA083C7490491C74C20BA
:1017700052864A85EFF0DFA9850A93FAFA0F83C7EC
:10178000A900E3E3FAF2D9476380F410050A137A5B
:10179000FA0F2DB59387418BEE978C23850DB76794
:1017A00000001385079DC20DEF20106793DD0D012A
:1017B00079B7D94D630AB50D1307E002E31EE5FAC8
:1017C00037650000130545B6EF2050768345BD0010
:1017D000482093E50508EF00D02403C71C00230E22
:1017E0000D00A54605071377F70FA380EC00E3F57E
:1017F000E6F87D4681451305CCA8EFE07F9AEFE03F
:101800003FC1AA8429E58345BD00482093E505082A
:10181000EF00302102458547130640448145A380EF
:101820000C001CA0A3020400EFE09F974C204A8507
:10183000EFF0DFA7AA8401ED371501408D4701467F
:10184000A145130505801CA0EF20007E35B7E38578
:10185000B4F389471CA00DB725476397E7029305AA
:1018600040443309B902B7090020138A8953938988
:1018700089534A9A83474A0203470A0263F9E700F9
:10188000014B7C206363FB2405616FE03F8FB3F75E
:10189000E70228207109138B418B2302FA027D296C
:1018A0002830F9210345BA009306E1011386418BE4
:1018B000B3852901EF005019AA8479F183450B0003
:1018C00037650000130505B7A30EB1000149EF20ED
:1018D000B054B76B0000376C0000B76C0000376D78
:1018E0000000B76D00007C20E37CF9F8130B1900B1
:1018F000137AFB0F9305D1015285EFF06FCF594753
:10190000AA846315E50419453309A9020547B317ED
:1019100067010347D10193C7F7FF13064044F98FCE
:10192000A30EF1008145B3072401C8279307404463
:101930001D093305F5024E95EFE09F861946814556
:1019400033052401EFE0DF85528971BF130540069E
:10195000EF2070309305D1015285EFF04FD55547F8
:10196000AA846316E50C9947B307F9020547A297C5
:10197000F8B32147B8B7238647019944B3049902C5
:101980009385418B5285EFF0CFE0B7670000AA85C1
:10199000A294A8A4138547B8EF20104888347D2E60
:1019A000A824F9263C3099C7370700501C3393F719
:1019B000B70F1CB3B7670000138547B9EF20105766
:1019C0009947B307F9024A851386870093859700E4
:1019D0002296A2953EC0EFF0AFDEAA84824779E15D
:1019E000330BF40003478B008D466314D706CA857A
:1019F00013854DBA3AC0EF2030428345BB00034502
:101A0000CB00EFF0BF8AAA8402471DFD37150140C5
:101A1000A303EB000146A14513050580EF20C0603C
:101A200037650000130505BDEF20505031BF8346D8
:101A3000D1010547B317670193C7F7FFF58FA30ED1
:101A4000F1009947B307F902A297FC33E39EE7EE52
:101A50002DB7CA8513858BBDEF20103C83478B00C3
:101A60002147638BE702636DF7001D476389E70237
:101A700019453309A9028D472299A303F900E9B555
:101A80002547638EE7001307F00F13058DC0E39120
:101A9000E7FEEF20B049E9BF13050CBFDDBF13859A
:101AA000CCBFC5BFA2970947F8B3B7670000CA8586
:101AB000138547C1EF205036371501400546A14533
:101AC00013050580EF20405641B59947B307FB0247
:101AD0008D46A297F8336312D7189427639FE616B2
:101AE00003CDC700130C4044814A330C8D03B387E8
:101AF000890162C23EC4A2479C2363F0FA16930C8C
:101B00000011B38C9A03994B93074C08014AB30B0D
:101B10007B03E697CE973EC092473389FC004E99EF
:101B2000A29BEDA83307490183474702834607027A
:101B300063E3D70EB3F7D70203C59B002302F70276
:101B4000312C03C5AB002D243C3099C7370700501A
:101B50001C3393F7B70F1CB3B30749019305CC01AE
:101B6000E695A837D2959306E1011386418BCE9571
:101B7000EF00806DAA84631E050CB0870245938533
:101B8000418B2308C910EF20800C37650000EA85DF
:101B90001305C5B0EF20502883558908376500002C
:101BA000130585B1EF2050278355A908376500003C
:101BB0001305C5B2EF205026835569043765000030
:101BC000130505B48D89EF203025AC8737650000FB
:101BD000130585B5EF2050248147B88763EBE704F0
:101BE000376500001305459BEF205034034749003B
:101BF00085476312F702B4871386418BD6856A85C1
:101C0000EFF0EFD68347490499C783C5BB005686DA
:101C10006A85EFF0EFDF050A137AFA0F8347A90010
:101C2000E362FAF0D9476389F402850A93FAFA0F5E
:101C3000D9B51387418B3E970C233EC6B76700008A
:101C40001385079DEF20501DB2478507C207C1834A
:101C500069B7D947E311F5FCD944050B137BFB0F9A
:101C60000DB1370700501C2393F7F70B1CA31C334F
:101C700093F7B70F1CB37E3BC207C18393F7F7BF3F
:101C8000C207C1837EBB8280EFE28FCEB707002000
:101C900003A74707B747950893870740094563009F
:101CA000F702B7E7B8059387078005456309F70092
:101CB000B777DC02938707C06315F7000145EF2073
:101CC000A04685450565EF20A0536FE0AFCCEFE25D
:101CD0002FCA854737040050631BF50299471CA0A3
:101CE0002945EF20E073930790F8230004001CA01F
:101CF000930780045CB4B72700209387C7AA1CCC45
:101D0000B72700209387C7AE5CCC6FE0AFC8994778
:101D10001CA02945EF20C07023000400FDB7370741
:101D200000507C23858B85C385477CA35433814732
:101D3000858A99CA854709C989476306F50018331A
:101D40008547058B11C389473E858280B7070050C0
:101D5000C833058113451500058982803707005077
:101D60003C331375F50793F70708C98F3CB382809E
:101D700085476317F500EFE2AFBFE5356FE08FC130
:101D8000B707005098231367070498A39833136785
:101D9000470098B3FA3B13670740FABB8280EFE233
:101DA0002FBD2A8401455D3F6D3D854763EC87006B
:101DB000370700501C3393E727001CB311E82D456B
:101DC000EF206069370700501C3393F7D70F1CB31F
:101DD0000945EF204068B7070050F823058B11C76D
:101DE000D833058B19C30547F8A36FE0AFBA37079F
:101DF00000505C33858B85CBEFE28FB71C33858B2E
:101E000091E72A84A13708A011E19D37B707005058
:101E1000983301451367170098B3FA3B13674700DF
:101E2000FABB6FE02FB759458280EFE2EFB1B707F9
:101E30000050A38DB702416A2A8B3289238FB702E3
:101E400093594500814437040050894B394CA94AC5
:101E5000A54C7D1A230C640323037401130D803EEB
:101E60007C20898B91EB7D1D420D0545135D0D0195
:101E7000EF20005BE3160DFE230C04027C20898B0F
:101E800081E71305E00F9DA87C3093F70704B5EFB9
:101E90007C3093F7F70F13F5F700630A8507631497
:101EA000550563090906630649017D19420913595D
:101EB0000901FD1493F4F40F5145EF2060567C2086
:101EC000858B91CB1305800CEF2080551C30858BC2
:101ED000A9C785477CA0850493F4F40FE39C54F7CD
:101EE0001305000221A8638D9901B5476385F900A8
:101EF0008547E398F9F869D1136505026FE04FA8AB
:101F00009D8B0D47E399E7FE45BF0145C5BF13050E
:101F1000E002EDB71305A002D5B75945C5B7EFE20A
:101F2000AFA2AA89B284130540062E89EF20404F44
:101F300099C02390040037040050A147896A5EBC11
:101F400013860A7181451305000DC5356314051408
:101F50009147A30DF402372B0020230FF4029307BF
:101F6000CBAEE223130BCBAE6308040E6306090E5F
:101F70008387070063C20706CE8BC20993D9090184
:101F8000370A0050938A0A7113054006EF20404932
:101F9000DE8763733401A287231EFA028147035749
:101FA000CA036393E7108345EA0356864145B53D6E
:101FB00075E18347EA0393C74700230FFA0283576B
:101FC000CA031D8C4204418091C48357CA039A20DE
:101FD000BA979EA055F849A0372B0020370A005029
:101FE000938A0A71130BCBAAFD1913054006EF2043
:101FF00020438345BA035686130500093D3559E948
:102000008347BA0393C74700A30DFA0203578A0018
:10201000A2876376870083578A00C207C1831D8C1D
:102020004204418081C49A203E979AA001479316AA
:102030000701C1826392D7063E9983578A00C2077F
:10204000C18399C783578A00B3F7F90091E351FC24
:10205000B7070050239E070213054006EF20403CBF
:10206000B7070050DE3F13050009C207C18391E3A3
:1020700041450966130606719145453B01ED370759
:1020800000505E3FC207C18391C71E27C207C183AC
:1020900091C35D456FE0CF8EB306EB009022B3068F
:1020A000E900050790A261B7834609003307FB00EA
:1020B0008507C20714A30509C183D5B5EFE24F8B8D
:1020C00013844182A14718401CA1B72700209387A1
:1020D000C7AE98C35840AA844111D8C3082113063B
:1020E000E1002E892D3D09E9834779007A209CA0E3
:1020F0003C8763F3E7005D4541016FE0AF89EFE2A4
:102100008F851387C181B28910435843372400203B
:102110009307C4AE411190C3D8C336862A8A2E894C
:1021200036C6F53B21E1B2461387C18172238E2268
:102130005D4563E9C50203463900834529009307DD
:10214000C4AE22064D8EB28563F3C900CE8510431E
:1021500058438EA290C3D8C39A223686CA85FAA362
:102160005285753B41016FE04F82EFD2DFFE9387CE
:10217000C18203AA07003724002083A94700130463
:10218000C4AE4111B28413E9053023204401130683
:10219000E100A685AA8A23223401231124014133B8
:1021A00019ED9C201306E100232044012322340171
:1021B000A68556857C87231124017EA08D3341019D
:1021C0006FD0BFFCEFD2DFFA138741831443B727E8
:1021D000002058439387C7AE94C3AEA3AE84D8C340
:1021E000014681452D3B2A8419E52685EFF01FB76E
:1021F0001545EF20402622856FD0DFF9EFD25FF73B
:102200001387C1831443B727002058439387C7AE71
:1022100094C3AEA3D8C301468145EFF05FD06FD021
:102220007FF7EFD2FFF41387418114435843B72758
:1022300000209387C7AED8C3CEA394C3014681457F
:10224000EFF0FFCD6FD01FF5EFD29FF22E848C21DF
:102250004111328913650509014636C6EFF0FFBC0E
:10226000AA84B24615E1B70700509227B72500208F
:102270009385C5AA4206418292A24A85EF20A02EEC
:102280001C2093C747001CA0268541016FD09FF0FA
:10229000EFD21FEEAA843725002041112E841305AA
:1022A000C5AEB285368636C6EF20E02BB246B707FC
:1022B00000500146D6BF0C2013E50401EFF0FFB635
:1022C00009E51C2093C747001CA041016FD09FEC7B
:1022D0000346C51019E609458280094561616FD042
:1022E000DFEAEFD25FE7B72900205D71AA8493850A
:1022F000C9B2130505081384C9B2EF10301071DD9F
:10230000130901011306E003938524044A85EF2095
:10231000802583C73404050499E31384C9B2BC86BD
:10232000B4870346A101AC84B3B6F6002285EF1052
:1023300010188357610283564102034621028355D8
:1023400001026886B3B6D7002285EF105016688761
:102350004A874A858147814505481146142F83489D
:102360009701A2969422B3F6160191C6B316F8000F
:10237000D58D93F5F50F85070907E391C7FE4A87C9
:1023800081470148854821468346070203431702D7
:10239000A2969422B3F6660099C6B396F80033E885
:1023A00006011378F80F85070907E39FC7FC7C0037
:1023B000094E130FE0071303F007930E10F876256C
:1023C0008358C50033871641B34FC7033346E7032D
:1023D00003970700635B170923901701C69633C75D
:1023E000C6039623998E139706014183931807011C
:1023F00093D80841B386CF4023901701B30FC04054
:1024000063D9F80732979AA3039707003307670247
:102410003347D702420741876354D7072390D70138
:102420009A23890721051307F707239FE7FEE3187F
:10243000F9F80317C1009306F003894763D6E60055
:102440009327170C93C717000317E1009306F003B7
:1024500063CFE60293E787009205DD8D93870188BD
:102460008CA3A3800701014595BDE3D9E6F696A3A9
:10247000B5B763541601118F79B72390070069B778
:102480006344E3009AA369BF2390670051BF93069A
:10249000000CE3D3E6FC93E747007DBFEFD25FCDAE
:1024A000053D01C501456FD0FFCE13850188E5BF0D
:1024B0000D8128A208228D470D896318F50013F5B8
:1024C0007500651513351500828085476316F50084
:1024D00013F5F5004515FDB77915EDB7EFD25FC6D9
:1024E00099677971938707C43EC699679387C7C276
:1024F000AA8AAE893284FD5CFD5DFD567D5D014F8B
:102500008145014E814E0149014501430148814405
:10251000FD58014C014A014B854B8D4F3EC86394D9
:1025200009000145B9AE83C20A0013D6220013D7B1
:10253000420093F232000D8A63950202FD19C2092E
:10254000850A93D909018147630D0C0669FAA947E9
:10255000631CF704050C8504137CFC0F93F4F40F43
:102560007DBF83C71A0063987201890AF919C209ED
:1025700093D90901D1BF83C32A00A2039E97638523
:10258000F2018D0AF519E5B783C23A0083C34A0008
:10259000ED19C202E203B3E27200C209B3E75700C9
:1025A00093D90901950A4DB7B147E31AF7F6FD141F
:1025B0007D1C93F4F40F137CFC0FE3D214F7FD5849
:1025C000B9BF6305761B01CE8942E31A56F4630353
:1025D000772B63010720E314C7F4CA9779AC21076E
:1025E0003D8B1146E36FE6F242460A0732971843E5
:1025F000028763070F041C20858BB9C3330F680261
:10260000130684010147B142137FFF0F9377F70F41
:1026100063FE6700B307E500C207C18393D33700A9
:102620009D8BB397FB00230076001CB205070906BB
:10263000E31E57FC230EE40363E36B0693E54500BA
:1026400093170801C18363CF0D041820058B05C3C0
:10265000B38DB7032316D4012317C4012305040146
:1026600093E51500AA9D2314B40163D20C04634EB4
:102670000D0418200D8B631AF705338DA70323096A
:1026800004032A9D2318A403B3876702014FFD5C4E
:10269000FD5D7D5D3E9542054181014949B593E56A
:1026A000C50079BFE3C50CFC1820058B69D3B38C3A
:1026B0009703231AD401231BC4012309040193E5C2
:1026C0002500AA9C231894015DB7E3CF06FA1820D1
:1026D0000D8BE31B77FBB386D702231CD403231D8A
:1026E000C403230B0403AA9656B8FD5671BF850494
:1026F00093F4F40F63977701050B620B135B8B4127
:1027000069BF91E7050A620A135A8A4179B70947F6
:10271000E38AE7FE0149054C19B5FD1493F4F40F63
:1027200063D31401FD5863070A007D1A620A135A25
:102730008A41F5B336D646D47AD276D01ACE72CC48
:1027400042CAE3000BDE7D1B620B2286135B8B41CA
:10275000EFF01FD66316051281455248624E724350
:10276000825E125FA258B2568D4F55BB2546E36A72
:10277000E6DA32460A073297184302871386B7FF14
:102780001D47636EC7001307D0083357C700058B7A
:10279000E31707D82547E394E7D8054F49B3E390FB
:1027A00077D9E3DE08D69398840193D8884185BB16
:1027B000939E070193DE0E019DB3139E0701135EE6
:1027C0000E01B1BB13F8F70F99BB1CB089BB13F313
:1027D000F70FB1B38DEC1947639CE7001C20F19B08
:1027E00093E727001CA0050942091359090105BBFD
:1027F0006397C7001C20F19B93E71700E5B7138789
:10280000C7FF63E6EB001C2093E73700E1BFE38CD2
:1028100077FD138707FD63E2EB02E3060BFC18204C
:10282000058B71D313178901130600036187639425
:10283000C700BA8D4DBFBA8C7DB713079003639D57
:10284000E700E3020BFA1C208D8BE39EF7F9131DC2
:102850008901135D8D4141BF13078003E395E7F8BC
:10286000E3030BF81C208D8BE39F77F79316890108
:10287000E18695BF0509B307F94013990701B5B77C
:10288000054545616FD09F8FEFD29F8E138741849E
:10289000328810435843B727002023A6C7AE93873A
:1028A000C7AED8C3CEA39A223686C285FAA3EFF06C
:1028B0000FE76FD03F8EEFD2BF8B1387C184328872
:1028C00010435843B727002023A6C7AE9387C7AE4F
:1028D000D8C3CEA33686C285EFF06FE46FD09F8B4E
:1028E000EFD21F8913874185032807005843B72774
:1028F000002023A607AF22069387C7AED18ED8C388
:10290000CEA3B6A301468145EFF06FE16FD09F885B
:10291000EFD21F861387C186B28610435843B7276C
:10292000002023A6C7AE9387C7AE4111D8C3CEA35C
:102930001306E100B685EFF08FDE41016FD09F8571
:10294000EFD21F831387C18514435843B727002054
:1029500023A6D7AE9387C7AED8C3B2A3CEA30146F2
:102960008145EFF0CFDB6FD0FF82EFD27F801387FE
:10297000418714435843B727002023A6D7AE938737
:10298000C7AED8C3B2A3CEA301468145EFF02FD97D
:102990006FD05F80EFD22FFC938741869843DC4352
:1029A000372400202326E4AE1304C4AEAA89AE84E3
:1029B00032895CC0EFF0AFD611E99C204A86A6852B
:1029C0002310F9004E857EA0EFF06FD56FD0EFFB9E
:1029D0001C352A8703280500142589CF014563F794
:1029E000F50648433385A5023695935735003E9842
:1029F000937675005043814593777600B337F000A6
:102A0000135536003E9581476393A50433D5D7000F
:102A1000FD57B397C700544793C7F7FFE98F0145A8
:102A200063E6D702144B63E3F602484F382709CF19
:102A30009306F6FF0547B316D700FD8E91C63317F0
:102A4000C7003307E040D98F3385A70282808347D0
:102A50000800939835008505B397170175B70346AD
:102A6000C5106302060CEFD20FEF138441881305E3
:102A7000050893854188EF10601845C51C4037074D
:102A800001016397E700584093871710630BF7081D
:102A90001965372400208145130585CA9304C4B6FF
:102AA000053F88B019658145130585CE1537A8A067
:102AB00019658145130585C8213FA8B01965814571
:102AC000130585CC3137C8A019658145130585D21A
:102AD0000137C8B019658145130585D6D53DE8A0F5
:102AE00019658145130585D0E535E8B0196581453F
:102AF000130585D4F13D88A41309C4B68144130499
:102B0000C4B6196A994993F5F40F13058AC6C935F5
:102B1000A304A90085040509E39734FF22856FD03B
:102B2000CFE60145EDBF014582800346C51019E699
:102B300009458280094541016FD02FE5EFD2AFE111
:102B40009384C18841112A8423A0040023A2040095
:102B50009385C18813050508EF10400A61DD83479E
:102B60003404850499E39384C1888357E40483562D
:102B700004050346C4048355A404B3B6F6002685B1
:102B8000EF10E012835664058357840583552405AE
:102B900003464405131A0501B3B6D700135A0A4178
:102BA000268523164101EF1080109319050193D952
:102BB0000941231731019306A40501470149054541
:102BC000914590229C32269610227D8E19C633168E
:102BD000E500B367260113F9F70F05078906E3122D
:102BE000B7FE8357C4078356A4070346840783555B
:102BF0006407B3B6D7002685EF10600B03472404A3
:102C000085470D8B631DF7061307F00763544701D3
:102C1000788629A0130700F8E34CEAFE1307F007B3
:102C200063543701788729A0130700F8E3CCE9FE45
:102C30002A8742054185930700F86354F50013077E
:102C400000F8B247B72600201386C6B71CC2937798
:102C500019005CA293572900858B935519007CA21B
:102C60008589BA874CB21396070141861307F0078E
:102C70009386C6B76354C7009307F0079EA6014525
:102C80005DBDEFD2EFCE553501C501456FD08FD078
:102C9000372500201305C5B7D5BF7300203001A02C
:102CA0002145EF10602311C5EF0030412145EF10A1
:102CB00080247300203051C5EFD28FCB1021B71480
:102CC00001402A841346F6FF138504C0058AC145D6
:102CD000EF1080351020138504C093050002058293
:102CE0001346F6FF058AEF1020341020138504C028
:102CF0009305001009821346F6FF058AEF10C032D3
:102D00001020138504C0930500200D821346F6FFA2
:102D1000058AEF1060311020138504C0A16511826F
:102D20001346F6FF058AEF102030102091651385B9
:102D300004C019821346F6FF058AEF10E02E6FD00B
:102D40006FC58280EFD22FC1797185451145EF1093
:102D5000004D85452145EF10804C85454145EF10DC
:102D6000004C85450545EF10804B37140140130595
:102D700004800546A14502CA02CC02CEEF10C02A4B
:102D8000130504C0014693050033EF10E029130535
:102D900004C00546B165EF10202985650546130579
:102DA00004809385050CEF1020288D444149854906
:102DB0004C0813050480231A31014ACE26CCEF10AB
:102DC0002014214A4C0813050480231A41014ACEDD
:102DD00026CCEF10E012F177938707334C081305E8
:102DE00004C0FC824ACE26CCEF1080118567938701
:102DF000070CFC824C08D147130504803ECE26CC3C
:102E0000EF1000108545054502D002D202D402D64B
:102E100002C602C8EF10A04085452145EF102040B2
:102E2000930780044C08130504C03ECE231A4101C9
:102E3000EF10000D8D450545EF10E021A147054439
:102E40003ED00810B1473ED422D602D2EF10200265
:102E50009307901168007C862307310122C8EF1088
:102E6000402245616FD06FB21967930687D88147BA
:102E7000130787D8130600078C226396A5008607E0
:102E8000BA978833828085078906E397C7FE8280D8
:102E9000EFD26FACB7070020130720069387070710
:102EA0006305E502130780066309E5127147814453
:102EB0006317E50213877189142363930614638EE5
:102EC0000512238007008D4419A813874189142314
:102ED000639A060E6383051223800700854493C519
:102EE000F5FF1314150085899823C18D13F4F50F90
:102EF000630D870C371901401305098005469305BA
:102F0000000880A3EF104012014693050008130546
:102F10000980EF10601113054006EF106050130593
:102F20000980054693050008EF10001013054006C0
:102F3000371A0140EF10C04E93090A80A38A018816
:102F40009D4A1389518993178401E187014663C320
:102F500007000546930500084E85EF10E00C294553
:102F6000EF10004C0146930500044E85EF10C00B96
:102F70002945EF10E04A0546930500044E85EF1001
:102F8000A00A2945EF10C0498347090006041374BD
:102F9000F40F850793F7F70F2300F900E3F5FAFA2A
:102FA00013054006EF10C04713050A800546930538
:102FB0000008EF10600713054006EF1060462685F5
:102FC0006FD0AF9C89C5238007008144CDBF23000B
:102FD000070023800700914419B7138761891423E0
:102FE00091E681CD238007008944D5BDE9FD23000A
:102FF0000700238007009544DDB5854614A3E1B79B
:10300000F9F123000700238007009944C9BDEFD2DE
:103010002F96B71401402944138904807D1401467A
:1030200085654A851374F40FEF10000065F80546B6
:10303000856513850480EF00307FB70700207D573A
:103040002388E706238A0188238B0188A38B0188C4
:103050006FD04F946305051CEFD2EF8F1C310547ED
:103060000111AA84639BE70038316318F700183513
:103070009307C0046313F700593FB7270020138755
:1030800087B8AC2038233E89138487B8630BB70018
:103090001305100E2CA02EC6EFF01FDDB245EFF089
:1030A0003FDFAC303C30638BB7001305200E2CB0F3
:1030B0002EC6EFF07FDBB245EFF09FDD8C301C3089
:1030C000638BB7001305000E0CB02EC6EFF0DFD9EE
:1030D000B245EFF0FFDBCC205C20638BB70013051B
:1030E000300E4CA02EC6EFF03FD8B245EFF05FDABD
:1030F000EC207C20638BB7001305500E6CA02EC60D
:10310000EFF09FD6B245EFF0BFD8EC307C30638B48
:10311000B7001305600E6CB02EC6EFF0FFD4B245B9
:10312000EFF01FD7CC305C30638BB7001305400E37
:103130004CB02EC6EFF05FD3B245EFF07FD58C24B4
:103140001C24638BB7001305700E0CA42EC6EFF081
:10315000BFD1B245EFF0DFD302C8231A010002CC81
:10316000231E010013056400930789B801461388E4
:10317000F40083C8970013879400BA86814503C37F
:1031800006006313130185458506E31AD8FE91E511
:103190001410B296238C16FF05068507E31BF5FC79
:1031A00081460C23A287014683C897006393B80029
:1031B00005468507E31AF5FE11E61C10B69723882D
:1031C000B7FE85060507E31EE8FC014999493C085E
:1031D000CA97882311C5EFF03FC98145EFF05FCB57
:1031E0000509E31639FF014999491C08CA97882344
:1031F00011C5EFF07FC78545EFF09FC90509E316BC
:1032000039FFA5473D47B386F4009022B306F4008A
:10321000850790A2E399E7FE05616FC01FF78280E2
:10322000EFC21FF2EF10201D716513050520EF108E
:10323000E025370400208325440737650000130587
:1032400085E6EF10603D37650000130585E7EF1058
:10325000E04D83254407896793870771B3D5F5024D
:103260002545372A002037090020930CCAA81304EB
:10327000895393090011FD15C205C181EFC0DFFC20
:10328000376500001305C5E8EF10404A37650000B8
:103290001305C5E9EF108049EFE01F9F0545EFE0FA
:1032A0001FA37D4681451305CAA8EFC07FEF0566C1
:1032B00013064655814513058953EFC07FEEEF0095
:1032C000D001EF00F007EFF0FFA7392A37650000C3
:1032D000130505EBEF108045130ACAA80D4B854B6B
:1032E000EFE00F9F83C71C00638D670103471A003F
:1032F000A547E317F7FE854A130B8953054D8D4DFE
:10330000E1A8930A89538144094D114CB3873403D2
:10331000A29783D767048D8B6397770113854A0043
:10332000EFF03F96C922B3873403A29783D767048F
:103330008D8B6398670113854A00EFF02F96EFF0AD
:103340009F97B3873403A29783D767048D8B6398C5
:10335000A70113854A00EFF08FF0EFF0BFCF85048F
:10336000938A0A11E39484FB51B7B3863B03A69674
:10337000DA9683D666048D8A6397A60133058B019E
:10338000EFF03F908D22B3863B03A696A29683D69C
:1033900066048D8A6398B60133058401EFF00F90BF
:1033A000EFF07F91B3863B038947A696A29683D61A
:1033B00066048D8A6398F60033058401EFF02FEAE6
:1033C000EFF05FC9850B9147130C0C11E39FFBF8DD
:1033D000850A9547E384FAF093074044B384FA02E0
:1033E000814B138C440051B7EFC29FD83725002082
:1033F000130585B9EF00207F6FC0DFD9635EA00899
:1034000089C685476303F50005854205418195E13D
:103410009387A1899A233A95420541858AA3138708
:10342000A1891A239306C0129387A1894207418775
:103430000DA09387C1899A233A95420541858AA3B5
:103440001387C1891A239306C0129387C189420743
:10345000418763D3E60096A38A231307F0079317E7
:103460000501C183636EF7061305F00F9DC309655F
:10347000130505713345F50219817D15420541811A
:1034800009CA1947AA876373E5009947139507018D
:1034900041811375F50F82800DCD99C6FD576305E7
:1034A000F50089473345F5024205418191E91387CB
:1034B000A1891E233385A740420541850AA385B70C
:1034C0001387C1891E233385A740420541850AA37E
:1034D00085BF81E5239D018899B7239E01888DB71B
:1034E0009307F00769B76305051AEFC2DFC6031734
:1034F00005004111635BE00E938781899423E20606
:10350000E18663920610239D0188854694A32A8450
:10351000131587018146014681456185EFF01FEE55
:10352000B7070020A388A7060305240081460146AB
:103530008545EFF0BFEC03064400B7070020238960
:10354000A7063715014013361600A165130505C0FF
:10355000EF00902D9387018A9C23A3070100831419
:10356000840093F7F70F1389018A9DE383096400B0
:103570008547639FF90037250020B5470546930529
:10358000F100130585B9DC87EF00606C2300390179
:103590008347090005476319F702830764008DE735
:1035A000B7290020B94705469305F100138589B96D
:1035B000DC87EF00C06905469305F100138589B9E2
:1035C000EF00E0682300090083178400A5EB0306E1
:1035D000540037150140916513361600130505C0D8
:1035E000EF00902441016FC05FBA11CF93878189AA
:1035F00094230546E206E1866397C600239D018871
:103600002380070029B783172500635CF0009387A8
:1036100091899423E206E186E39B06EE239E0188CE
:10362000EDB5E38607EE9387918994230546E2067C
:10363000E186E39EC6EC239E0188D9B713D7F441F7
:10364000B98C998C93F4F40F6353F002AD47DC8787
:103650000149B7290020E30C99F605469305F100CE
:10366000138589B90509E5231379F90FEDB79D474E
:10367000DC870149B7290020E30B99F4054693053F
:10368000F100138589B90509D9231379F90FEDB72D
:103690008280EFC2FFAD9387A1899E231384E189C5
:1036A000C207C1876358F00E1C209384A189E207EA
:1036B000E18791EB37150140014693050010130592
:1036C00005C0EF0070161C200547E207E187639AEA
:1036D000E700371501400146C145130505C0EF005D
:1036E000B0141C200947E207E187639BE700371508
:1036F0000140054693050010130505C0EF00D012E8
:103700001C200D47E207E187639AE7003715014067
:103710000546C145130505C0EF00101113878189C7
:103720001823938781896207618735E318207D1705
:103730006207618718A09A2085467D174207418756
:103740009AA0982362076187631AD70018208D46D4
:103750006207618763D4E600230004009C23E2072C
:10376000E18781EB1C20E207E18763D407008D47E6
:103770001CA0B70700209387170798231377F70F2C
:1037800009EFB70700400547DAB76FC0BFA01820A0
:10379000050779BF23000400E9BF9C2337070040D9
:1037A0005EB7E5B7EFC2DF9C9387C1899E23138480
:1037B000F189C207C187635BF00E1C200D4793841B
:1037C000C189E207E187639BE700371501400546A1
:1037D00093050002130505C0EF0010051C200947E2
:1037E000E207E187639BE700371501400546930533
:1037F0000020130505C0EF0030031C200547E20739
:10380000E187639BE70037150140014693050002FD
:10381000130505C0EF0050011C20E207E18791EB82
:1038200037150140014693050020130505C0EF0040
:10383000A07F1387918918239387918962076187F5
:103840003DE318207D176207618718A09A208546FE
:103850007D17420741879AA0982362076187631A00
:10386000D70018208D466207618763D4E6002300E5
:1038700004009C23E207E18781EB1C20E207E1873B
:1038800063D407008D471CA0B70700209387270744
:1038900098231377F70F11EFB717004005472396CA
:1038A000E7826FC03F8F1820050771BF2300040017
:1038B000E1BF9823B7170040DDB7EFC2DF893714A7
:1038C00001404111130504C0A3070100EF0000747B
:1038D000AA843725002005469305F100130585B914
:1038E000312E01469165130504C0EF00E0739C87FB
:1038F00085EF0546C145130504C0EF00E07205469B
:1039000093050002130504C0EF00007205469305FD
:103910000010130504C0EF00207105469305002038
:10392000130504C0EF0040709887AD47631BF70292
:10393000371401400146C145130504C0F525014671
:1039400093050002130504C0C52505469305001024
:10395000130504C0D12D054693050020130504C0AE
:10396000E12598879D47631BF70237140140054600
:10397000C145130504C04D2D0146930500021305F2
:1039800004C05D25014693050010130504C0692D90
:10399000054693050020130504C079259887B5478F
:1039A000631BF702371401400146C145130504C0EB
:1039B000A52D014693050002130504C0B525054653
:1039C00093050010130504C08525014693050020CA
:1039D000130504C0912D9887B947631BF70237146C
:1039E00001400546C145130504C03D2D0146930520
:1039F0000002130504C00D2D0146930500101305A8
:103A000004C01D25014693050020130504C0292D7F
:103A100037140140930904C00549A1454E85D12BB7
:103A2000E31D25FFA685130504C0212D41016FC0AC
:103A3000CFF5B71702409843B706FFF81367170092
:103A400098C3D843758FD8C39843B706F7FEFD16C1
:103A5000758F98C39843B706FCFFFD16758F98C302
:103A6000D843B70681FFFD16758FD8C337079F006F
:103A700098C7B746024003A706801367070123A033
:103A8000E680D843B706C1FFFD16D8C3D843D8C3D4
:103A9000D84313670740D8C3D843758FD8C3D843DA
:103AA000B7063C00558FD8C39843B7060001558F21
:103AB00098C3984393166700E3DD06FED843B71614
:103AC0000240719BD8C3D84313672700D8C321474E
:103AD000DC42B18BE39EE7FE8280EFC26FE9011109
:103AE0008545054502CA02CC231E010002C602C854
:103AF000B12795679387F7913ECA4C089307803E9C
:103B0000370500403ECC912F0546854537050040DE
:103B1000EF00C07C9307C0427C8685475C876800C5
:103B200085473EC8B92B854537050040EF008079B1
:103B3000B7E700E0056723A2E71005616FC08FE5D6
:103B4000EFC20FE301118545114502CA02CC231EC5
:103B5000010002C602C8DD2595673714004093872F
:103B6000F7913ECA4C089307803E130504803ECC73
:103B7000ED2505468545130504808D279307E03222
:103B80007C8685475C87680085473EC8DD2985457A
:103B900013050480052FB7E700E0116723A2E710A3
:103BA00005616FC02FDF854537050040892719C59E
:103BB000EFF03FAE854537050040B1277300203058
:103BC000411122C63714004085451305048005279E
:103BD00019C5EFF03FBD8545130504802D273244FC
:103BE000410173002030930700081EA59307B5001C
:103BF00023220500230505001CC182803825AA87E1
:103C000009C72385070032858280054738A581468C
:103C1000139506014181E376C5FE03D86700DA23D8
:103C2000630407039843429708233387D50008A30A
:103C3000FA238A27050742074183FAA36314E500A4
:103C4000239307008506E9B723850700828038257E
:103C5000AA8709C72385070032858280054738A5D2
:103C60008146139506014181E376C5FE03D84700DE
:103C7000FA23930818006387E80003D3870063964C
:103C8000680001E72385070082803387D500082379
:103C90009843429708A3DA238A27050742074183FE
:103CA000DAA36314E5002392070085065DBF13D8ED
:103CB00035001378F80F9D89B30805019307F00FBD
:103CC00013F7F50FB397B70083C50800A148B38871
:103CD000E840ED8F93F8F80FB3D7E7406365160718
:103CE00093051800130886FFC207429793F5F50F56
:103CF000C1831377F70F9D4E130FF00F214E39CB71
:103D00001308F00F63E8EE003308EE4033580F411C
:103D10001378F80F13831500AA958C211373F30FF2
:103D20003378B80033181801C297C207A108C183BD
:103D300093F8F80FBA856373EE00A1450D8F1377E2
:103D4000F70F9A856DBF05453315C5007D15E98FC1
:103D5000C207C18385C21307F6FF05463316E60086
:103D60004206418233F7C70011C7D18F06064206CB
:103D7000418265FE3E85828001A001A001A001A0D4
:103D800001A001A001A001A001A001A001A001A02B
:103D900001A001A001A001A001A001A001A001A01B
:103DA00001A001A001A001A001A001A001A001A00B
:103DB00001A001A001A001A001A001A001A001A0FB
:103DC00001A001A001A001A001A001A001A001A0EB
:103DD00001A001A001A001A001A001A001A001A0DB
:103DE00001A001A097D1FF1F9381C1A81711002046
:103DF00013014121172500001305051897C5FF1F62
:103E0000938545201386018863FAC5008322050047
:103E100023A0550011059105E3EAC5FE138501882D
:103E200097E5FF1F938585E06377B50023200500A4
:103E30001105E36DB5FEFD42739002BC8D42739097
:103E400042809302800873A0023097C2FFFF9382E2
:103E5000E21E93E2320073905230EFF09FBD97F272
:103E6000FFFF9382223C739012347300203058413C
:103E7000032805004C4537060140930706403E974E
:103E80009346F8FFB1C583250640F58D2320B64043
:103E9000D043F18ED4C31443B3E6060114C31841D2
:103EA00090479346F7FF758E90C7D047F18ED4C7E1
:103EB000144541466399C6009447D98E94C7D447A8
:103EC000558FD8C78280B6979443558F98C3828008
:103ED0001C43F58F1CC38280B7070140138707403E
:103EE00083A70740584B698F09C77D8D3335A000E4
:103EF000828001458280B707014023AAA7408280C3
:103F00009C4513F7070113F8F70001C7D841336840
:103F1000E80037270240145B3707000F758F4DEB21
:103F20008546A380D18A371701406315E5009A21A1
:103F300035839AA18E2113F7F50F39C318418146B5
:103F4000854E3D4F930F800293028004214E33969D
:103F5000DE00B3F8C50063111603939826003313EF
:103F60001F011343F3FF3377E300B318180133E75E
:103F7000E8006397F70750C98506E39AC6FD18C1A4
:103F80001307F00F6375B70454412146854E3D4F2A
:103F9000930F800293028004414EB398CE0033F712
:103FA00015016392E8021317260001173313EF007F
:103FB0001343F3FFB376D3003317E800D98E63952C
:103FC000F703232A15010506E319C6FD54C18280B3
:103FD00037170140E310E5F603C7118A21DF81BFDF
:103FE000E39C57F810C949BFE39F57FC23281501EC
:103FF000D9BFB71701406316F50083C7118A91C373
:10400000B58108456D8D3335A0008280B71701401A
:10401000631AF50083C7118A91C7484536054205E2
:10402000418182804845E5BFB71701406316F5001E
:1040300083C7118A91C3B58119C20CC982804CC94A
:104040008280B71701406316F50083C7118A91C3B8
:10405000B5814CC5828013F7C50F93F73500B705BE
:104060000140BA9594458A073D473317F700134737
:10407000F7FF758F98C598453315F500598D88C59C
:1040800082809387418A9443182181E63C219207DC
:1040900021A894430546639FC6023C211031920734
:1040A0006314D60093E707F8B7E600E093F7F70F3D
:1040B000BA962380F6408546935757003397E6001B
:1040C0005441A5C2938707048A07B7E600E0B69774
:1040D00098C382808C4389466391D50214313C2178
:1040E0006365D6008A06B6975DB79386E6038A06AF
:1040F000B69793F7F70F920775B790438D46631CF9
:10410000D60014313C216364D6008606E9BF93864D
:10411000C6078606F1BF94439147E39EF6F81C312B
:10412000BDB7938707064DB7B7170240D843B70608
:1041300040FFFD16758FD8C3D8435A05598DC8C3A3
:104140008280371702405C439146B18B6385D7006C
:10415000A1466382D706B7177A00938707201CC150
:10416000371602405C42370700201307070091838F
:10417000BD8BBA9794231C41B3D7D7005CC154427E
:10418000A1829D8ABA969422B3D6D70014C5544210
:10419000AD829D8A36971823B3D7E7005CC5584295
:1041A0003983937637001387818036971823B3D7E6
:1041B000E7021CC982805C435843C166C983BD8B3A
:1041C000758F8907C5466393D700C94701EF374705
:1041D000024003270780418B09CF37177A00130766
:1041E000072021A83717024058439316E700E3D66B
:1041F00006FE37173D0013070790B387E70285B720
:1042000099C5371702405C4B5D8D48CB8280B7174C
:104210000240D84B1345F5FF798DC8CB828099C5F4
:10422000371702401C4F5D8D08CF8280B7170240C0
:10423000984F1345F5FF798D88CF828099C5371740
:1042400002405C4F5D8D48CF8280B7170240D84F47
:104250001345F5FF798DC8CF82801E213737014085
:10426000130707C0C207C1836304E5023707004094
:104270006300E50213070740630CE50037170040B1
:10428000930607806306D500130707C06316E50091
:10429000BA2193F7F7F8D98FFA2193F7F7CFC2072E
:1042A000C183D98F1EA1DE215EB59E211EB5B73711
:1042B0000140938707C06314F5009C251EB985470C
:1042C0005EA982801E2189C593E717001EA1828006
:1042D000C207C183F99BC207C183CDBF5E2501C65A
:1042E000DD8D4EA5828093C5F5FFFD8DDDBF1E29B6
:1042F0004A25ED8F4205418189C76D8D3335A00078
:1043000082800145828093C5F5FFC205C1810EA957
:104310008280EFB2FFE51629F577FD17F58FF621BC
:10432000DA257971D58F1EA95625FD779387379F9A
:10433000F58FD6212A842EC6D58F9625D58FB62502
:10434000D58F5EA55E29C207C18393F7F7CFD98FBA
:104350005EA96808EFF0FFDEB7470140938707804A
:10436000B245631AF404A25756246547B387E7029F
:10437000C206C186984163D206040607522442064B
:10438000B3D7E702130740064186B3D6E702B3F777
:10439000E7029206635506028E0793872703B3D779
:1043A000E70213F77700B367D700C207C1831EA4E3
:1043B00045616FB03FDE925745BF0A07C1B792070C
:1043C00093872703B3D7E702BD8BD58FF9BF91C57C
:1043D0005E250967D98F5EA582805A25F977FD177A
:1043E000F98FD5BF93F5F51F4EA182800A216D8DFF
:1043F0003335A0008280B707002083A7470737170F
:104400007A0013070720B3D7E70293F7F70F238546
:10441000F18A1307803EB387E7022394F18A8280F2
:10442000B7F700E0D8438146799BD8C303C7A18A78
:104430003306A70290CBD4CB98431367070198C3E8
:1044400098431367170298C3D843058B75DF9843C9
:10445000799B98C38280B7F700E0D8438146799B67
:10446000D8C303D7818A3306A70290CBD4CB984315
:104470001367070198C398431367170298C3D8437B
:10448000058B75DF9843799B98C38280EFB25FCE2E
:104490002A841165011185451105EFF05FD8930756
:1044A00000207C82371501408D473EC44C00E14717
:1044B000130505803EC6EFF0BFA422C83744014073
:1044C000B70708000C08130504803ECC02CA231E5F
:1044D0000100EFF01FE4854513050480EFF03FEF86
:1044E00005616FB03FCBEFB21FC7B7440140AE8943
:1044F0003289014493840480634524014A856FB066
:10450000DFC8930500042685EFF05FEE7DD9B38701
:1045100089008385070026850504C205C181EFF067
:104520007FECD9BF1387C1801C43B7260020938638
:1045300086C23E95636BD500B756002093860680F1
:1045400063E5A60008C33E858280FD57EDBF93F565
:10455000F50F2A966314C500014582801C21E38E65
:10456000B7FE0505C5BFB3C7A5008D8B3307C500D2
:1045700081E78D4763EDC700AA87637EE508942134
:1045800085078505A38FD7FEE3EBE7FE8280937650
:104590003500AA8789CA942185078505A38FD7FE90
:1045A00093F63700C5BF9376C7FF138606FE63F008
:1045B000C70683A3050083A2450083AF850003AF30
:1045C000C50083AE050103AE450103A3850183A8A1
:1045D000C5019385450223A0770003A8C5FF23A248
:1045E000570023A4F70123A6E70123A8D70123AA94
:1045F000C70123AC670023AE17019387470223AEA0
:1046000007FF75B790419107910523AEC7FEE3EB15
:10461000D7FEE3E6E7F6828039713EDA2ED232D455
:1046200036D63AD842DC46DE9387018122CC8043DD
:1046300026CA06CEAA8409C41C4C99E32285FD290A
:104640000C4454102686228536C6EF009013F240A3
:104650006244D24421618280011126CA4AC806CE32
:1046600022CC4EC652C4AA842E8901C51C4D91E3AA
:10467000F1219C4C804499E32685C92197270000AD
:104680009387C787631BF402C0405E24A18BB1C728
:104690001C48A1C7FD59294A1C4483450900FD1740
:1046A000B1E91CC463DD07062286A9452685692079
:1046B000FD576308F502294535A097270000938729
:1046C000E7856314F4008044C9B7972700009387F7
:1046D000E780E31CF4FAC0444DBFA2852685192A61
:1046E00055D97D55F2406244D2444249B249224AEA
:1046F000056182801CC4050963D70700184C63CA92
:10470000E700638845011C401387170018C08CA37D
:1047100061B7228626850D20E31035F9D9B71C40F4
:104720001387170018C0294798A371B79387018191
:10473000AA8588436FF05FF2011122CC26CA4AC8CD
:1047400006CE4EC6AA842E89328401C51C4D91E343
:10475000F526971700009387677A6317F406C04021
:104760001C4C1CC45E24A18BC1C31C48B5CF1C4883
:1047700008409379F90F1379F90F1D8D5C48634652
:10478000F500A2852685692C25E51C440505FD1745
:104790001CC41C401387170018C0238037015C48D5
:1047A0006388A7005E24858B81CBA9476316F90037
:1047B000A2852685B5240DEDF24062444A85D24497
:1047C0004249B249056182809717000093870775B7
:1047D0006314F400804469B797170000938707704B
:1047E000E310F4F8C044ADBFA2852685212041D155
:1047F0007D59D9B741119387018126C2844322C4D0
:104800004AC006C62A892E8489C49C4C99E3268511
:104810003526971700009387676E631BF402C0402C
:104820000317C40093170701C18393F68700ADEA0D
:1048300093F6070195EEA5472320F90013670704B7
:104840005AA47D55B24022449244024941018280DB
:10485000971700009387876C6314F4008044C9B7EE
:104860009717000093878767E31CF4FAC0444DBF95
:10487000918B9DC34C5889C9930744046384F50008
:104880004A85292B232A04025E242322040093F75D
:10489000B7FD5EA41C481CC05E2493E787005EA49D
:1048A0001C4899EB5E241307002093F707286385C3
:1048B000E700A2854A8591295E2413F717001DC3DE
:1048C0005C4823240400B307F0401CCC1C4801457D
:1048D000B5FB8317C40013F707082DD793E7070428
:1048E0005EA485B7898B014791E3584818C4F9BF86
:1048F000DE25011122CC26CA06CE4AC84EC613F7C1
:104900008700AA842E8479EBD841634DE000B8413A
:10491000634AE0000145F2406244D2444249B24950
:104920000561828058547DD703A90400939637010E
:1049300023A0040063DB060670485E24918B99C7B0
:104940005C401D8E5C5899C33C401D8E5C540C50DD
:10495000814626858297FD575A24631DF5009440B1
:10496000F54763E8D706B70740208507B3D7D700D8
:10497000858BA5C31C48232204001CC09317370154
:1049800063D80700FD576314F5009C4091E368C8A5
:104990004C5823A02401BDDD930744046384F50033
:1049A0002685ED2E232A0402B5B70C500146854614
:1049B00026850297FD572A86E311F5F89C40B5DF5E
:1049C00075476385E70059476393E70423A02401F3
:1049D00091B7136707045AA47D5535BF83A9050114
:1049E000E38A09F203A905008D8B23A03501330961
:1049F0003941014791E3D84918C4E35D20F11C54C3
:104A00000C50CA864E86268582976347A0005E2496
:104A100093E707045EA4C9B7AA993309A940F1BF77
:104A20009C49A5C3011122CC06CE2A8411C51C4D78
:104A300081E72EC62122B245971700009387074CC5
:104A4000639CF5004C408397C5009DC72285624456
:104A5000F24005616FF0DFE9971700009387074C7C
:104A60006394F5000C44C5B7971700009387074778
:104A7000E39BF5FC4C44C1BFF24062440145056133
:104A8000828001458280411122C406C62A844EA537
:104A900072A52320050023220500232405002322DC
:104AA000050623280500232A0500232C050021469E
:104AB00081451305C505EFB0AFEE9717000093874A
:104AC00087B35CD0971700009387A7B51CD49717BE
:104AD0000000938787B95CD4971700009387E7BBE2
:104AE00000D01CD8B24022444101828097050000CA
:104AF000938545F391AA411126C21306800693843B
:104B0000F5FFB384C4024AC02E8922C406C6938529
:104B100044070D2E2A8401CD2320050023222501E0
:104B2000310508C4138684068145EFB06FE72285FE
:104B3000B240224492440249410182801C4DA5E7C3
:104B4000411106C622C497070000938767FA1CD557
:104B50009387C1879C432324050423260504232827
:104B600005046314F50085471CCD2A84352848C008
:104B700022851D2808C42285052848C448400146CE
:104B80009145EFF05FF008440546A545EFF0BFEF13
:104B900048440946C945EFF01FEF85471CCCB24099
:104BA000224441018280828041119387C18726C2BD
:104BB00084434AC006C69C4C22C42A8981E72685C4
:104BC000EFF0DFF7938484048044DC40FD1763D664
:104BD00007009C40B9CF8440C5BF0317C40039E724
:104BE000C177850723220406232004002322040022
:104BF000232404005CC423280400232A0400232C5B
:104C00000400214681451305C405EFB06FD9232A5E
:104C10000402232C040223240404232604042285F2
:104C2000B240224492440249410182801304840626
:104C300071BF91454A85EFF01FEC88C049FDB1472F
:104C40002320F9000144E1BF797122D44AD052CC2B
:104C500056CA5AC85EC606D626D24ECE2A8AAE8A12
:104C6000130485040149054BFD5B09ECB250225445
:104C70004A8592540259F249624AD24A424BB24B97
:104C800045618280044483294400FD1963D40900EE
:104C90000040E1BFDE24637BFB008397E400638771
:104CA0007701A6855285829A3369A9009384840688
:104CB000E9BF1971A6DAAE848395E500A2DC86DE31
:104CC000328463DB0500DE2423A0060093F7070887
:104CD00085E7930700401DA0300836C6EF0070221C
:104CE000B246E34205FE7247BD67F98F7977BA97FE
:104CF00093B717009CC2F1BF930700041CC0F65085
:104D00006654D654014509618280DE25011122CC0A
:104D100006CE26CA4AC8898B2E8489CF930774048D
:104D20001CC01CC885475CC8F2406244D24442495A
:104D30000561828074003000AA84EFF09FF7A245DD
:104D40002A892685012219E98317C40013F7072051
:104D500061FFF19B93E727005EA4C9B797070000A6
:104D6000938707D99CD45E2408C008C893E7070836
:104D70005EA4A2475CC8B24781CF8315E4002685B4
:104D8000EF00501B11C55E24F19B93E717005EA452
:104D90005E243369F9002316240179B7DDC183A7A6
:104DA000C5FF411122C406C626C21384C5FF63D3C2
:104DB00007003E94AA84EF00301E9387C18A9C436B
:104DC00081EF2322040023A6818A2244B240268553
:104DD000924441016F00701C637EF400144033075D
:104DE000D4006396E7009843DC43369718C05CC054
:104DF000D9BFBA87D84319C3E37DE4FE9443338611
:104E0000D700631F86001040B29694C33386D70044
:104E1000E31DC7FA10435843B29694C3D8C375B77D
:104E20006375C400B1479CC04DB71040B306C400C1
:104E30006316D70014435843B29614C058C0C0C379
:104E400069B78280011126CA93843500F19806CE95
:104E500022CC4AC84EC6A104B14763F3F404B1445E
:104E600063E2B4042A89EF0030139387C18A984320
:104E70003A8439E09387018B9C4391E781454A85C9
:104E8000812723A8A18AA6854A851D2FFD5963196C
:104E90003507B1472320F9004A85EF00101029A0FB
:104EA000E3D004FCB1471CC10145F2406244D24446
:104EB0004249B249056182801C40858F63CF070259
:104EC000AD4663F6F6001CC03E9404C031A05C40C1
:104ED0006313870223A6F18A4A85EF00100C13059D
:104EE000B4009307440061993307F5405DDF3A94BD
:104EF000898F1CC05DBF5CC3C5B72287404095BF8A
:104F0000130435007198E30285FCB305A4404A857B
:104F1000452DE31C35FBB5BF1C46FD171CC663DAE7
:104F20000700184E63C5E700A9476394F5006FF0CA
:104F3000BF801C422E851387170018C28CA3828065
:104F4000011122CC26CA4AC84EC652C406CE2A89AE
:104F5000AE893284B304D6007D5A631494000145AF
:104F600009A80C204E864A85EFF01FFB0504E316C6
:104F700045FFF2406244D2444249B249224A0561A7
:104F80008280357122CD26CB4AC94EC706CF52C585
:104F900056C35AC1DEDEE2DCE6DAAA89AE84328983
:104FA000368409C51C4D99E3EFF05FB997170000EF
:104FB0009387C7F46399F40C83A44900DE24A18B82
:104FC000EDC79C48FDC393070002A304F1029307B9
:104FD000000302D22305F10222C6930B5002971A56
:104FE0000000938AAAF5054C294B4A841C2099C3DA
:104FF0006390770FB30C2441638E0C00E6864A86DB
:10500000A6854E85EFF0DFF3FD576302F51E92563D
:10501000E69636D21C20638C071CFD57130914003A
:1050200002C802CE3ECA02CCA309010482D4834541
:10503000090015465685EFF08FD113041900C247B9
:1050400051E913F7070109C713070002A309E10497
:1050500013F7870009C71307B002A309E1048346C9
:1050600009001307A002638FE606F2474A848146CF
:105070002546182093051400130707FD6377E60AF9
:10508000B5CA3ECE85A897170000938727E9639598
:10509000F40083A489001DB797170000938707E4E5
:1050A000E39EF4F083A4C90011BFA6854E85EFF0FE
:1050B0006FF411D97D55FA406A44DA444A49BA4935
:1050C0002A4A9A4A0A4BF65B665CD65C0D6182807E
:1050D000050429BF330555413315AC00C98F3EC8BF
:1050E0002289B1B7324793064700184336C6634753
:1050F00007023ACE18209307E002631DF704183028
:105100009307A002631BF702B24709041387470005
:105110009C433AC663C107023ECA2DA83307E0404C
:1051200093E727003ACE3EC8F1B7B38767038546B9
:105130002E84BA973DBFFD57C5B7050402CA814604
:1051400081472546182093051400130707FD637651
:10515000E606F9F20C200D4617150000130585DE52
:10516000EFF0EFBE11CD971700009387A7DD1D8DDF
:1051700093070004B397A700424505045D8D2AC834
:105180000C20194617150000130505DC130914003F
:105190002304B102EFF0AFBB35C197B7FFFF938790
:1051A00067E695E74247B2471377071009CF9107A3
:1051B0003EC69257D2973ED20DBDB3876703854650
:1051C0002E84BA9741B79D07E19BA107D5B7780018
:1051D00097060000938606D726860C084E85970012
:1051E0000000E7000000FD572A8AE314F5FCDE24E6
:1051F00093F70704E39007EC125575BD7800970606
:105200000000938626D426860C084E85012AE1BF2D
:10521000797156CA9C49BA8A984522D426D24ECE74
:1052200052CC06D64AD05AC85EC6AA892E84B28409
:10523000368A63D3E700BA879CC00347340419C396
:1052400085079CC01C4093F7070281C79C408907D3
:105250009CC00329040013796900631A0900130B29
:105260009401FD5B5C449840998F634CF9041C40A9
:105270008346340493F70702B336D000A5EB130638
:105280003404D2854E85829AFD576303F5041C4091
:1052900011469840998B544481446397C700B38466
:1052A000E64063D3040081441C4418486354F7006B
:1052B000998FBE94014969047D5B6398240501457B
:1052C00009A885465A86D2854E85829A631E750145
:1052D0007D55B250225492540259F249624AD24A40
:1052E000424BB24B456182800509ADBF3307D40004
:1052F00013060003A301C704034754049387160051
:10530000A2978906A381E7049DBF85462286D285A0
:105310004E85829AE30E65FB050945B7797122D463
:1053200026D24AD04ECE06D652CC56CA5AC8B689D4
:10533000942D930790063289AA842E84138635040F
:10534000638DF60263E2D706930780056387F6183C
:1053500063EDD700638F062093073004638FF60A4E
:10536000930A24042301D404D1A093073006638652
:10537000F60A93074006E395F6FE1C40084393F6B1
:10538000070893054500CDC61C410CC363D8070030
:105390001307D002B307F040A301E40497160000FE
:1053A000938606BB29476DA8930700076383F6160B
:1053B00063E5D7029307E006638AF6189307F006C1
:1053C000E390F6FA0C401C4313F8050813854700D8
:1053D0006308080608C39C438DA893075007E3831E
:1053E000F6FE93078007638AF61293073007E39966
:1053F000F6F61C43D04181459386470014C383AA27
:1054000007005685EFF0AF9401C53305554148C0FC
:105410005C401CC8A301040461A81C43930A240433
:10542000938647009C4314C32301F4048547D5B7F2
:1054300093F607041C410CC3B1DAC207C187B9B7A0
:1054400093F5050408C3C1D99E231307F0066387AB
:10545000E60E971600009386A6AF2947A301040421
:105460004C400CC463C5050008406D9908C099E321
:10547000B28A89CDB28AB3F5E702FD1AB6958C21BE
:105480002380BA00B3D5E70263F0E70CA147631E9F
:10549000F7001C40858B91CB58401C4863C7E70040
:1054A00093070003A38FFAFEFD1A3306564110C876
:1054B0004E87CA867000A2852685EFF07FD57D5A7B
:1054C000631D450B7D55B250225492540259F24946
:1054D000624AD24A424B45618280A382D504971624
:1054E00000009386E6A60C40084313F805081C410B
:1054F0001105630D080208C313F7150001C793E5F2
:1055000005020CC04147B9FB0C4093F5F5FD0CC0FA
:10551000B1B79C4193E707029CC193078007A302A0
:10552000F404971600009386E6A375BF13F80504EC
:1055300008C3E30308FCC207C1837DBF97160000C0
:10554000938606A1214719BFAE8735B794411C4306
:10555000CC4913F80608138547006306080008C302
:105560009C438CC339A008C393F606049C43F5DA28
:105570008EA323280400B28A25BF14485686CA8504
:1055800026858299E30045F51C40898B8DE7B2475B
:105590004844E35AF5F23E853DB785465686CA85AE
:1055A00026858299E30065F3050A5C443247998FAA
:1055B000E345FAFEE9BF014A930A94017D5BF5B722
:1055C000411122C42A842E8597C7FF1F23AE07648A
:1055D00006C6EFE03FF5FD576319F50097C7FF1FBB
:1055E000938787649C4391C31CC0B240224441010D
:1055F0008280411122C42E848395E50006C6792A53
:10560000634905007C48AA977CC8B2402244410106
:1056100082805E247D777D17F98F5EA4FDB7DE253D
:10562000011122CC26CA4AC84EC606CE93F70710EF
:10563000AA842E843289B68991C78395E50089466C
:1056400001460D225E247D777D17F98F5EA48315B8
:10565000E4006244F240CE864A86B2494249268539
:10566000D244056125A8411122C42E848395E5000A
:1056700006C6CD28FD575A24631AF500FD77FD179D
:10568000F98F5EA4B2402244410182808567D98FA0
:105690005EA468C8C5BF8395E50025A8411122C452
:1056A0002A842E85B285368697C7FF1F23AE0756FC
:1056B00006C6EFE05FE3FD576319F50097C7FF1FCC
:1056C000938787569C4391C31CC0B240224441013A
:1056D0008280411122C42A842E8597C7FF1F23A5EB
:1056E000075406C6F520FD576319F50097C7FF1F3D
:1056F000938787539C4391C31CC0B240224441010D
:105700008280411122C42A842E85B28597C7FF1F4B
:1057100023AC075006C6E920FD576319F50097C76B
:10572000FF1F938767509C4391C31CC0B240224423
:1057300041018280411122C42A842E8597C7FF1F10
:1057400023A4074E06C66D20FD576319F50097C7C1
:10575000FF1F9387674D9C4391C31CC0B2402244F6
:1057600041018280411122C42A842E85B285368669
:1057700097C7FF1F23AA074A06C65920FD5763197A
:10578000F50097C7FF1F9387274A9C4391C31CC00E
:10579000B24022444101828082808280411122C431
:1057A0002A842E85B285368697C7FF1F23AE07460B
:1057B00006C6B928FD576319F50097C7FF1F9387E1
:1057C000A7469C4391C31CC0B24022444101828041
:1057D0009307800517C7FF1F2328F7447D55828054
:1057E0009307800517C7FF1F2320F7447D5582804C
:1057F0009307800517C7FF1F2328F74201458280C2
:105800009307800517C7FF1F2320F7427D5582802D
:105810009307800517C7FF1F2328F7407D55828017
:105820004855425F5045315F455252313A25780D17
:105830000A0000004855425F5045315F45525232E0
:105840003A25780D0A0000004855425F5045315F07
:10585000455252333A25780D0A00000048756220FF
:10586000506F72742578204F75740D0A0000000087
:105870004855425F5045325F455252313A25780DC6
:105880000A0000004855425F5045325F455252328F
:105890003A25780D0A0000004855425F5045325FB6
:1058A000455252333A25780D0A00000048756220AF
:1058B000506F7274257820496E0D0A004765742078
:1058C000496E74657266616365257820526570441F
:1058D0006573633A20000000456E756D2048696469
:1058E0003A0D0000456E756D204875623A0D000056
:1058F000416E616C797A6520436667446573633AEB
:105900002000000047657420537472696E67446517
:105910007363343A20000000476574205374726941
:105920006E6744657363313A200000004765742058
:10593000537472696E6744657363323A20000000E5
:1059400047657420537472696E6744657363333AB4
:105950002000000047657420487562204465736329
:105960003A200000526F6F744875624465762E626B
:10597000506F72744E756D3A20253032780D0A00E2
:105980002853312947657420446576446573633A2A
:10599000200D000053657420446576416464723ABA
:1059A000200D0000476574204465764366674465B2
:1059B00073633A200D0000005365742043666756F8
:1059C000616C75653A200D00456E756D3A0D0000ED
:1059D00025303278200000005365742044657641FC
:1059E0006464723A200000004572722825303278D3
:1059F000290D0A004F4B0D0047657420436667442C
:105A00006573633A20000000446576547970653A06
:105A100020253032780D0A00536574204366673ABA
:105A20002000000047657420446576446573633A3E
:105A30002000000055534220506F72742044657658
:105A400020496E2E0D000000526F6F742044657661
:105A5000696365204973204849442E2000000000F6
:105A60004675727468657220456E756D2052657357
:105A7000756C743A20000000526F6F742044657694
:105A8000696365204973204855422E2000000000BC
:105A9000526F6F74204465766963652049732000F6
:105AA00053746F726167652E200000005072696E3A
:105AB0007465722E200000004875622E20000000E0
:105AC000556E6B6E6F776E2E20000000456E642061
:105AD000456E756D2E0D0000456E756D2046616931
