:100000006F30405513000000130000001300000083
:100010001300000013000000130000001300000094
:100020001300000013000000130000001300000084
:08003000130000007300100032
:1000380000000000000000000A2400000E24000058
:1000480000000000EC340000000000000000000088
:10005800EE340000F0340000000000000000000052
:10006800F234000000000000F4340000000000003A
:10007800F6340000F8340000FA340000FC340000C4
:10008800FE34000000350000023500000435000091
:1000980006350000102400000A3500000C35000069
:1000A8000E35000010350000123500001435000030
:1000B80016350000183500001A3500001C35000000
:1000C8001E350000203500002235000024350000D0
:1000D80026350000283500002A3500002C350000A0
:1000E80016330000B8020000303300003435000039
:1000F80036350000383500003A3500003C35000040
:100108003E3500004035000042350000443500000F
:1001180046350000483500004A3500004C350000DF
:100128004E35000050350000523500000000000038
:080138000000000000000000BF
:10014000397101436EC619A0397141536AC866CA34
:1001500062CC5ECE19A0397101535AD056D252D416
:100160004ED64AD826DA22DC06DE3301614082828E
:1001700041114AC026C222C406C68282B24D410144
:10018000024D924C224CB24B4101024B924A224A00
:10019000B2494101024992442244B2404101828065
:1001A0003D432A876373C3029377F700BDEFADE544
:1001B000937606FF3D8ABA960CC34CC30CC74CC756
:1001C0004107E36BD7FE11E28280B306C3408A0683
:1001D0009702000096966780A6002307B700A30643
:1001E000B7002306B700A305B7002305B700A30493
:1001F000B7002304B700A303B7002303B700A3028B
:10020000B7002302B700A301B7002301B700A30082
:10021000B7002300B700828093F5F50F9396850011
:10022000D58D93960501D58D61B7939627009702DA
:10023000000096968682E78086FA9680C1171D8F09
:100240003E96E374C3F8A5B7EFF29FF20111AA84BA
:100250002E840945854502CA02CC231E010002C630
:1002600002C8EF30A074E082370400404C08130548
:100270000440E484231D0100231B0100EF30E074DF
:100280000546854513050440EF30407C9307D012A6
:100290007C8689475C87680085473EC8EF3060559B
:1002A000854513050440EF30E078B7E700E00967C3
:1002B00023A2E7100561F9BD411122C637040040B1
:1002C000854513050440EF30807945C58545130504
:1002D0000440EF30407A372700209306C7A19022D0
:1002E000894763F8C70890328D45DC326315B60440
:1002F00013074044B387E702370700201307874CF2
:100300008146BA9703C807006305D806A8273E862A
:10031000014709A88345360205071377F70F8505BE
:10032000A301B6020506E317E5FE850693F6F60F70
:1003300093870711D1BFA545631DB602130540443D
:10034000B387A702370600209305864C03C36600D7
:100350001307C7A181461305864C094E8D4E130F16
:100360004044AE9783C5470285052382B7026316D2
:10037000D30032444101730020307C336374FE04A7
:100380001C276391D7055C278145B387E703AA97AC
:1003900083C207006388B20283CFA7003E8801466C
:1003A00009A88348380205061376F60F8508A301CD
:1003B00018030508E397CFFE850593F5F50F93879E
:1003C0000711C9BF850693F6F60F19074DB75821D7
:1003D000A1466305D700FC256395D700A1471CA261
:1003E00082809D466304D7006394D7009D47C5BFB4
:1003F0008D466304D7006394D7008D47CDB7A546DB
:100400006304D7006394D700A547D1BFFD57C1BF90
:10041000EFF29FD3B72400209384C4A1411101447B
:10042000138B3400994B138C44009389418A130534
:100430004006EF30207805041374F40F214533157E
:100440008500EF3020770145EF10000D0149014A8A
:10045000930C40065A85EF10201119E5050A137A0E
:10046000FA0F63E44B050149050942090545135993
:100470000901EF302074E31F99FD9547E3F987FAEE
:10048000594531A09547E3F487FA1305500441011B
:10049000C5B99547E3FD87F813056004CDBF9547BF
:1004A000E3F787F813057004DDB7938541CA6285C9
:1004B000EF10603861F9C82009498945238124017A
:1004C000EF10E04779F5154523812401EF30806E68
:1004D000C8209306E10013060040CE85EF10C03916
:1004E0005DFDCE85138541CA1386140003C95900EA
:1004F000F93DC820CA85EF10E04751D99547E3F888
:1005000087F21305B00F61B7EFF21FC4130A40441E
:10051000330A4503B70900209389894C2A8CAE8A97
:10052000814401441389418A894B338B49018347B4
:10053000390003472900A207BA976350F41CB30798
:100540008900983363127703DC231147637BF7003C
:100550002300EB00B30789009C233E9442044180B2
:10056000F9B72300FB00FDB79146E317D7FE63867A
:10057000E418D4330D476392E616F823854663EFFB
:10058000E612F83363ECEB12631FD70A93070011EE
:10059000B387F402D297CE97D8A381460146A685A9
:1005A0005685EF10F02AB30789009C2313088008B2
:1005B000130720223E9493070011B387F402834867
:1005C000290042044180814601451143154E930E96
:1005D000100233880403D297CE973307EC023A987F
:1005E0003307890010336308660A6376140B0C2303
:1005F0002E94420441806318C60950332C23034FC4
:100600004700220693F2F5007A96E2054206E1855C
:10061000834F3700418263D305047823338FA700CB
:10062000B305A8002300EF02B827A1058605CE95E3
:1006300005070505A3055F00A307FF01D2A1B8A721
:100640001375F50F71BFE31077F793070011B387A8
:10065000F402D297CE972382770181B73387D700F0
:10066000A3045702A306F7033307D8004107060780
:100670004E9732AB03C78702850693F6F60F050740
:100680002384E702B1BFE31DD6F510277833220695
:10069000518FFAA3B1B78547639EF6009307001107
:1006A000B387F402D297CE97D8236315D7007D572E
:1006B0002381E704850493F4F40F95BD930700119B
:1006C000B387F4027D57D297CE97D8A3B30789009A
:1006D0009C233E9442044180F1BF13070011B38470
:1006E000E40213074044B7070020330CEC02269CB9
:1006F0009384874CE294FD57DCA0014551B483C636
:10070000418A95476397F6181387418A14338547C2
:100710006391F6183423A547639DF6163433994741
:100720006399F61693060011130840443308050335
:10073000B70800201386884C011122CE26CC4ACA65
:100740004EC852C656C4B386D5025AC25EC091473F
:100750000143814E014F014E9388884C1144C2964B
:100760003696835366000148930F000793040008F0
:10077000930200092149C149130A0002854A63E036
:100780007704A147631AF30E93070011130740443F
:10079000B387F5023307E502BA97B385F80083C73C
:1007A000250481E785472381F5047244E2445249D8
:1007B000C249324AA24A124B824B05618280B3067B
:1007C000F70094228507C20793FBC60013FB36008F
:1007D000C18393F6060F638D8B02638B2B076395A2
:1007E0000B026393560263010802B386EE0336934D
:1007F00042031353030163090E008346E60389E6AF
:10080000230F5603A30FC603DA97C207C18385BF20
:10081000638BF60363EBDF00E5FAB306F70003C86A
:100820000600611813381800C5B763899600E39D68
:1008300056FCB306F70083CE0600F9B7B306F700FF
:1008400003CE0600D1B7B306F70003CF06006DBF95
:10085000638C3601E39A46FBE30808FAB306F70017
:100860009422A300D6044DB7E30008FAB306F700BC
:1008700094222300D60449BF93070011B387F502E1
:10088000930540443305B502AA97C6972381070410
:1008900029BF8280EFF2DF8A93074044B30BF50251
:1008A000B70400201389844C4111AA892EC4814DBC
:1008B0009384844C930A00115E99034D09005E8A6B
:1008C000154C630C0D06034409003304A441137452
:1008D000F40FB30C540333874C0126977A2331C7A6
:1008E000DE9C13876C0026972245BA861386418AC0
:1008F000A2853AC6850DEF10207093FDFD0F32479B
:100900000DE9A285330454034E85D53B13866C0450
:1009100026961385418A529426946E20EF10203338
:1009200013854C082695EF2010237D1D137DFD0FA8
:1009300049BFE37BBCFB130D80046A8541016FF066
:10094000FF83130740443305E5029387418AB033A0
:10095000BC23B706002022069386864C3E969385DC
:10096000418A814709431148254E954E3695854861
:1009700063C4C700014582803387F500034F070039
:100980001433FA97C207C183639A6600582363F54C
:10099000E80023001501E9BF18A1D9BFE39A06FDBD
:1009A0005833E317C7FD3387F5001433E38206FDA0
:1009B000E3D0C7FC034F0700FA97C207C183E39453
:1009C000D6FF3423139F8601135F8F41E35D0FFC35
:1009D000BD8A34B53433034F470074B5543378239C
:1009E000A2062300E5023825FA9656A9050738A580
:1009F0005DBFEFF24FF6372400209307C4A1C83340
:100A0000411181372A8955ED9387418AEC231304DC
:100A1000C4A1138A418A91C548201386418AEF00F8
:100A2000706C938741CAEC27138941CA91C548204D
:100A30001386418AEF00106B8345F90091C5482069
:100A40001386418AEF00106A8345090191C5482049
:100A50001386418AEF001069954948201306E1008A
:100A60009385418AEF10006A2A8929E503472A0005
:100A7000914763EFE70278A081498544114A7C20C1
:100A800063E197044820214693F5F40FEF10E064EA
:100A900001CDFD1485091545C20493F9F90FEF3016
:100AA0006011C180636D3A018504C204C180C1BF79
:100AB0007CA0D9B7FD1993F9F90FE39009FA13094E
:100AC000E00F4A8541016FF04FECEFF2CFE89C2137
:100AD0004111B3D7A740858B95C3372900209307D1
:100AE000C9A1AA85AA84C82370001309C9A1EF105F
:100AF00020592A8439E51C87858B81E71304E00F90
:100B000089A0034549004146A685EF10605A2A8412
:100B10000DE9A949034549007000A685EF1040562C
:100B20000DE51C8705041374F40F858B81C7E3134F
:100B300034FFE9B7A947E303F4FC1C865944858BCD
:100B4000D5FF228541016FF04FE42A84DDBFEFF22B
:100B50008FE09C2141111304E00FB3D7A740858B90
:100B6000C1C7372900209307C9A1AA85AA84C82331
:100B700011461309C9A1EF1040562A8435E52945CD
:100B8000EF304003AD49034549007000A685EF10E2
:100B9000204F31E91C8705041374F40FC18B9DEFBE
:100BA000E31334FF034549005146A685EF1040503A
:100BB0000144AD49034549007000A685EF10404C43
:100BC0001DE11C8705041374F40FC18B95C3E31357
:100BD00034FF1C86858B91C7554531A0A947E31387
:100BE000F4FC1305E00F2A84228541016FF0EFD950
:100BF000A947E308F4FEF1BFEFF28FD7B727002033
:100C00002E842E86AA8503C507A2EF10604711E93E
:100C10001C3013F7270011E713F547003335A00008
:100C200005056FF02FD7EFF22FD29947B307F502E2
:100C3000372400201309C4A14111AA892E8B328ABE
:100C4000A9441304C4A1AD073E99DE8A938541CA25
:100C50004A85EF00503E11C9FD1493F4F40FFDF4E2
:100C60001305500441016FF0AFD19944B384990248
:100C70002949A294CC24A834890593F5F50FEF00F7
:100C8000104C3DE1194933892903DC2415458907B6
:100C90002300FB00EF201072A944138B418A229994
:100CA0000345B9009306E10013060040DA85EF0022
:100CB000B03C39E152869385418A138541CA034984
:100CC0005B00EFF0CFF09947B389F902A9444E9445
:100CD0002834CA85EF00104A51D5FD1493F4F40F5F
:100CE000E5F813059004BDBF7D191379F90FE313DF
:100CF00009F813056004BDB7FD1493F4F40FCDF0AB
:100D000085B7EFF2EFC3130D0011338DA5039305E3
:100D10004044B70700203289368C8549094B8D4BFA
:100D20003305B5026A95138D874C2A9D034A0D043D
:100D300083443D04834A1D04D28D33844D41137492
:100D4000F40F834C3D0463FABA0133849441333485
:100D5000800023028D046FF06FC2639F3D016286A5
:100D6000930530054A85EF20F06D33948D0005E141
:100D7000850D93FDFD0FD1B763906D0362869305DA
:100D800090034A85EF20106C65D533948900334475
:100D90009401A3018D04E9BFE39C7DFD6286930568
:100DA0007004C5B7EFF2CFBCAA86130840442E8565
:100DB000B285130600113388060337070020930716
:100DC000874C41111307874C3386C5024296B29770
:100DD00003C8E70303C637046300080483C7F703A7
:100DE000D0865C868947130640447C8793070011B0
:100DF000B386C6028548B387F5023388D7003A9890
:100E000003462804631D16019306E1007000EF10ED
:100E1000802141016FF00FB850868547E9B79305EF
:100E2000F00F0145E317B6FE9387A703B697034576
:100E3000980234877000B305F700EF00903CD1BFF3
:100E4000EFF28FB0AA89AE84EFF00FEC2A8A35E971
:100E50009387418AEC2391C51386418A2685EF004A
:100E60007028A6854E853D34938741CAEC271389A7
:100E700041CA91C51386418A2685EF00B026834575
:100E8000F90091C51386418A2685EF00B025834578
:100E9000090191C51386418A2685EF00B024130904
:100EA000404433892903B70A0020938A8A4C0144BD
:100EB000930B0011054C330B590183470B006365FD
:100EC000F40052856FF0CFABB3077403CA97D6977F
:100ED000D82363188701A38107042286A6854E853F
:100EE000D13505041374F40FC9BFEFF26FA5B72B0A
:100EF000002003C5CBA179711384CBA1712B0547C9
:100F00002A8D6311E50C08A0A3020400EFF04FD076
:100F10002A8D5DE114300D476391E6024C20483084
:100F200005370DE10D4718A0014637150140A145D1
:100F300013050580EF20500629A825466392C608B0
:100F40004D3CC5B75947594D6305E50089471CA07D
:100F50002A8D142009476378D71E18308D464430F7
:100F6000631BD71A130B4044338B6403B70A00206A
:100F7000138C8A4C0149938A8A4CB3078B013EC675
:100F8000BE8C9307CB015ACA3ECE03C70C00637CCC
:100F9000E91A130700113307E90293064B08014AC7
:100FA000BA96B387DA003EC8D247B309F700F247D2
:100FB000D699BA973ECC45A85947E30CE5F80947BE
:100FC00018A041BF59F544307D4681451385CBA11A
:100FD000EFF00F9D13054044B384A40237050020B1
:100FE0001305854C1306404481452695EFF04F9B31
:100FF000054625BF338C490183464C0203460C024B
:1010000063E0C606B3F6C602E2470345BC0013869A
:10101000418AB3854701D6952302DC029306E1029B
:10102000EF00D0192A8D39E90356E1024245938534
:10103000418A2388C910EF20803883C649000547BC
:101040006390E6028356E1021386418ACA852685AB
:101050004D3903C7490409C74C204A862685993370
:10106000050A137AFA0F03C7A900E365EAF859479E
:10107000630BED0C05091379F90F01BFD947630420
:10108000F50C9306E002E31DD5FC8345BC00482027
:1010900093E50508EF00501083C61C00230E0C00DA
:1010A0002546850693F6F60FA380DC00E37AD6FA90
:1010B0007D4681451385CBA1EFF08F8EEFF04FB5C4
:1010C0002A8D21E58345BC00482093E50508EF0003
:1010D000B00C32458547130640448145A3800C007F
:1010E0001CA0A3020400EFF0AF8B4C202685893BA7
:1010F0002A8D01ED371501400D470146A145130525
:10110000058018A0EF204069A1BFD947E30AFDF48C
:10111000094718A0B1B7A5466317D7029305404405
:10112000B384B40237090020130A894C1309894C8F
:10113000269A03474A0283460A026379D700014B85
:1011400078206362EB1845616FF04F833377D702E5
:101150002820F104938A418A2302EA02AD2E283026
:1011600069260345BA009306E1021386418AB30556
:101170009900EF00B0042A8D79F103C70A00371BEC
:1011800001408144A306E102594CD54C194A130B86
:101190000B808D4B7820E3F4E4FA938D140093FADE
:1011A000FD0F9305D1025685EFF03F922A8D63150E
:1011B0008505B38444030547B31DB7010347D10236
:1011C00093CDFDFF13064044B3FDED008145A3061A
:1011D000B103330794004827130740449D043305A7
:1011E000E5024A95EFE0DFFB19468145330594009F
:1011F000EFE01FFBD68479BF13054006EF20901B5C
:101200009305D1025685EFF09F942A8D63129509BC
:10121000B38744030547A297F8B32147B8B723869D
:101220005701B38D44039385418A5685F132A29DBF
:101230002385AD0003C59D00792C03C5AD00752441
:101240003C3099C7370700501C3393F7B70F1CB3D6
:10125000B38D4403268513868D0093859D002296C9
:10126000A295D1322A8D31E9A29D03C78D00631367
:10127000770583C5BD0003C5CD00D9362A8D3DF95C
:10128000A3837D010146A1455A85EF20E0509DB71B
:101290000347D1028546B39DB60193CDFDFFB3FD53
:1012A000ED0033874403A306B10322977833E31399
:1012B000D7F485BFA3837D0135BFB304B40189474B
:1012C000FCB00546C9B79947B304FB028D46A2940A
:1012D000F8306311D7109424639EE60E83CCC400CB
:1012E00093074044814AB38BFC0293874B085EC846
:1012F000B30D79013ECC03C70D0063FDEA0C130763
:1013000000113387EA02E247014AB386E700B307D8
:10131000D9003EC6C2479386CB01B309F700B38715
:10132000E600CA993ECA41A8B386490103C74602EE
:1013300003C60602636EC7063377C702883423826A
:10134000E602512AA82455223C3099C7370700509D
:101350001C3393F7B70F1CB3D2479306E1021386F1
:10136000418AB3854701B3874901A837CA95EF0081
:10137000E0642A8D21ED0356E10232459385418ACE
:101380002388C910EF20A00383C649000547639155
:10139000E6028356E1021386418AD6856685EFF020
:1013A0005F9603C7490409C7AC3456866685DD3AA3
:1013B000050A137AFA0F03C7A900E367EAF659474B
:1013C0006309ED00850A93FAFA0F35B75947E3111F
:1013D000E5FE594D050B137BFB0F9DB337070050FE
:1013E0001C2393F7F70B1CA31C3393F7B70F1CB305
:1013F0007E3BC207C18393F7F7BFC207C1837EBBA1
:101400008280EFE2FFD6B707002003A74701B74766
:1014100095089387074009456300F702B7E7B805C9
:101420009387078005456309F700B777DC02938748
:1014300007C06315F7000145EF20004685450565A7
:10144000EF2000536FE01FD5EFE29FD285473704AE
:101450000050631BF50299471CA02945EF2020721C
:10146000930790F8230004001CA0930780045CB449
:10147000B72700209387C7A31CCCB72700209387EA
:10148000C7A75CCC6FE01FD199471CA02945EF206E
:10149000006F23000400FDB7370700507C23858BC5
:1014A00085C385477CA354338147858A99CA85477C
:1014B00009C989476306F50018338547058B11C3B1
:1014C00089473E858280B7070050C83305811345A0
:1014D000150005898280370700503C331375F507E6
:1014E00093F70708C98F3CB3828085476317F500DF
:1014F000EFE21FC8E5356FE0FFC9B707005098233A
:101500001367070498A398331367470098B3FA3B0F
:1015100013670740FABB8280EFE29FC52A8401452A
:101520005D3F6D3D854763EC8700370700501C33F6
:1015300093E727001CB311E82D45EF20A06737077C
:1015400000501C3393F7D70F1CB30945EF2080667A
:10155000B7070050F823058B11C7D833058B19C383
:101560000547F8A36FE01FC3370700505C33858B36
:1015700085CBEFE2FFBF1C33858B91E72A84A1372F
:1015800008A011E19D37B707005098330145136754
:10159000170098B3FA3B13674700FABB6FE09FBF91
:1015A00059458280EFE25FBAB7070050A38DB702BA
:1015B000416A2A8B3289238FB702935945008144AF
:1015C00037040050894B394CA94AA54C7D1A230C8D
:1015D000640323037401130D803E7C20898B91EBFF
:1015E0007D1D420D0545135D0D01EF204059E316A9
:1015F0000DFE230C04027C20898B81E71305E00F8C
:101600009DA87C3093F70704B5EF7C3093F7F70F74
:1016100013F5F700630A8507631455056309090686
:10162000630649017D19420913590901FD1493F418
:10163000F40F5145EF20A0547C20858B91CB1305EE
:10164000800CEF20C0531C30858BA9C785477CA038
:10165000850493F4F40FE39C54F71305000221A8CA
:10166000638D9901B5476385F9008547E398F9F8DB
:1016700069D1136505026FE0BFB09D8B0D47E399FB
:10168000E7FE45BF0145C5BF1305E002EDB71305F1
:10169000A002D5B75945C5B7EFE21FABAA89B284FE
:1016A000130540062E89EF20804D99C02390040039
:1016B00037040050A147896A5EBC13860A718145D0
:1016C0001305000DC535631405149147A30DF402ED
:1016D000372B0020230FF4029307CBA7E223130B31
:1016E000CBA76308040E6306090E8387070063C255
:1016F0000706CE8BC20993D90901370A0050938A95
:101700000A7113054006EF208047DE8763733401BA
:10171000A287231EFA0281470357CA036393E71087
:101720008345EA0356864145B53D75E18347EA03A3
:1017300093C74700230FFA028357CA031D8C420444
:10174000418091C48357CA039A20BA979EA055F846
:1017500049A0372B0020370A0050938A0A71130BD7
:10176000CBA3FD1913054006EF2060418345BA0362
:101770005686130500093D3559E98347BA0393C7D7
:101780004700A30DFA0203578A00A28763768700F9
:1017900083578A00C207C1831D8C4204418081C4E3
:1017A0009A203E979AA0014793160701C18263923F
:1017B000D7063E9983578A00C207C18399C78357CA
:1017C0008A00B3F7F90091E351FCB7070050239E5C
:1017D000070213054006EF20803AB7070050DE3FAE
:1017E00013050009C207C18391E341450966130649
:1017F00006719145453B01ED370700505E3FC2073A
:10180000C18391C71E27C207C18391C35D456FE0A5
:101810003F97B306EB009022B306E900050790A2BC
:1018200061B7834609003307FB008507C20714A38D
:101830000509C183D5B5EFE2BF931384C181A147E8
:1018400018401CA1B72700209387C7A798C358400A
:10185000AA844111D8C308211306E1002E892D3D29
:1018600009E9834779007A209CA03C8763F3E7006D
:101870005D4541016FE01F92EFE2FF8D13874181CB
:10188000B28910435843372400209307C4A741115D
:1018900090C3D8C336862A8A2E8936C6F53B21E105
:1018A000B2461387418172238E225D4563E9C502EA
:1018B00003463900834529009307C4A722064D8EAD
:1018C000B28563F3C900CE85104358438EA290C3FE
:1018D000D8C39A223686CA85FAA35285753B410140
:1018E0006FE0BF8AEFE23F879387418203AA070038
:1018F0003724002083A947001304C4A74111B284F0
:1019000013E90530232044011306E100A685AA8AC5
:101910002322340123112401413319ED9C201306A5
:10192000E1002320440123223401A68556857C87CB
:10193000231124017EA08D3341016FE01F85EFE26A
:101940003F831387C1821443B727002058439387EE
:10195000C7A794C3AEA3AE84D8C3014681452D3B2F
:101960002A8411E52685853E1545EF20A024228591
:101970006FE05F82EFE2CFFF138741831443B72705
:10198000002058439387C7A794C3AEA3D8C301468A
:10199000814519336FE01F80EFE28FFD1387C1800F
:1019A00014435843B72700209387C7A7D8C3CEA3B3
:1019B00094C301468145CD316FE0CFFDEFE24FFB8F
:1019C0002E848C214111328913650509014636C6E2
:1019D000D13EAA84B24615E1B70700509227B72539
:1019E00000209385C5A34206418292A24A85EF203A
:1019F000E0261C2093C747001CA0268541016FE00C
:101A00006FF9EFE2EFF6AA843725002041112E840A
:101A10001305C5A7B285368636C6EF202024B24608
:101A2000B70700500146D6BF0C2013E50401EFF0C4
:101A30007FB709E51C2093C747001CA041016FE058
:101A40006FF50346C51019E60945828009456161B5
:101A50006FE0AFF3EFE22FF0B72900205D71AA84A9
:101A60009385C9AB130505081384C9ABEF1010109B
:101A700071DD130901011306E003938524044A85EF
:101A8000EF20C01D83C73404050499E31384C9AB58
:101A9000BC86B4870346A101AC84B3B6F6002285A8
:101AA000EF10F0178357610283564102034621026B
:101AB000835501026886B3B6D7002285EF10301631
:101AC00068874A874A858147814505481146142F12
:101AD00083489701A2969422B3F6160191C6B316D5
:101AE000F800D58D93F5F50F85070907E391C7FE3B
:101AF0004A878147014885482146834607020343B8
:101B00001702A2969422B3F6660099C6B396F8001F
:101B100033E806011378F80F85070907E39FC7FC30
:101B20007C00094E130FE0071303F007930E10F823
:101B300076258358C50033871641B34FC703334614
:101B4000E70303970700635B170923901701C69605
:101B500033C7C6039623998E1397060141839318C2
:101B6000070193D80841B386CF4023901701B30FE4
:101B7000C04063D9F80732979AA303970700330749
:101B800067023347D702420741876354D707239040
:101B9000D7019A23890721051307F707239FE7FE3B
:101BA000E318F9F80317C1009306F003894763D6D9
:101BB000E6009327170C93C717000317E10093065D
:101BC000F00363CFE60293E787009205DD8D9387EC
:101BD00081878CA3A3800701014595BDE3D9E6F673
:101BE00096A3B5B763541601118F79B723900700F8
:101BF00069B76344E3009AA369BF2390670051BFAC
:101C00009306000CE3D3E6FC93E747007DBFEFE2C9
:101C10002FD6053D01C501456FE0CFD713858187DC
:101C2000E5BF0D8128A208228D470D896318F500B4
:101C300013F5750065151335150082808547631609
:101C4000F50013F5F5004515FDB77915EDB7EFE291
:101C50002FCF91677971938747D23EC6916793875B
:101C600007D1AA8AAE893284FD5CFD5DFD567D5D9B
:101C7000014F8145014E814E014901450143014813
:101C80008144FD58014C014A014B854B8D4F3EC8A4
:101C9000639409000145B1AE83C20A0013D6220045
:101CA00013D7420093F232000D8A63950202FD19A8
:101CB000C209850A93D909018147630D0C0669FAA7
:101CC000A947631CF704050C8504137CFC0F93F4EF
:101CD000F40F7DBF83C71A0063987201890AF9194E
:101CE000C20993D90901D1BF83C32A00A2039E97D9
:101CF0006385F2018D0AF519E5B783C23A0083C303
:101D00004A00ED19C202E203B3E27200C209B3E76E
:101D1000570093D90901950A4DB7B147E31AF7F671
:101D2000FD147D1C93F4F40F137CFC0FE3D214F725
:101D3000FD58B9BF6304761B01CE8942E31A56F4FD
:101D40006302772B63000720E314C7F4CA9771ACD2
:101D500021073D8B1146E36FE6F242460A073297B0
:101D60001843028763070F041C20858BB9C3330F08
:101D70006802130684010147B142137FFF0F937776
:101D8000F70F63FE6700B307E500C207C18393D373
:101D900037009D8BB397FB00230076001CB205072C
:101DA0000906E31E57FC230EE40363E36B0693E589
:101DB000450093170801C18363CF0D041820058BDC
:101DC00005C3B38DB7032316D4012317C40123051C
:101DD000040193E51500AA9D2314B40163D20C04F9
:101DE000634E0D0418200D8B631AF705338DA7037E
:101DF000230904032A9D2318A403B3876702014F14
:101E0000FD5CFD5D7D5D3E9542054181014949B521
:101E100093E5C50079BFE3C50CFC1820058B69D399
:101E2000B38C9703231AD401231BC4012309040193
:101E300093E52500AA9C231894015DB7E3CF06FA29
:101E400018200D8BE31B77FBB386D702231CD4032A
:101E5000231DC403230B0403AA9656B8FD5671BF75
:101E6000850493F4F40F63977701050B620B135B02
:101E70008B4169BF91E7050A620A135A8A4179B713
:101E80000947E38AE7FE0149054C19B5FD1493F4AF
:101E9000F40F63D31401FD5863070A007D1A620A28
:101EA000135A8A41F5B336D646D47AD276D01ACEB2
:101EB00072CC42CAE3000BDE7D1B620B2286135BF1
:101EC0008B4185336316051281455248624E724339
:101ED000825E125FA258B2568D4F5DBB2546E36B02
:101EE000E6DA32460A073297184302871386B7FFAD
:101EF0001D47636EC7001307D0083357C700058B13
:101F0000E31807D82547E395E7D8054F51B3E39188
:101F100077D9E3DF08D69398840193D888418DBBA5
:101F2000939E070193DE0E01A5B3139E0701135E76
:101F30000E01B9BB13F8F70FA1BB1CB091BB13F393
:101F4000F70FB9B38DEC1947639CE7001C20F19B98
:101F500093E727001CA005094209135909010DBB8D
:101F60006397C7001C20F19B93E71700E5B7138721
:101F7000C7FF63E6EB001C2093E73700E1BFE38C6B
:101F800077FD138707FD63E2EB02E3060BFC1820E5
:101F9000058B71D3131789011306000361876394BE
:101FA000C700BA8D4DBFBA8C7DB713079003639DF0
:101FB000E700E3020BFA1C208D8BE39EF7F9131D5B
:101FC0008901135D8D4141BF13078003E395E7F855
:101FD000E3030BF81C208D8BE39F77F793168901A1
:101FE000E18695BF0509B307F94013990701B5B715
:101FF000054545616FE08F98EFE28F971387C183A6
:10200000328810435843B727002023AEC7A69387D2
:10201000C7A7D8C3CEA39A223686C285FAA3EFF00B
:10202000AFE76FE02F97EFE2AF94138741843288D8
:1020300010435843B727002023AEC7A69387C7A7EE
:10204000D8C3CEA33686C285EFF00FE56FE08F943C
:10205000EFE20F921387C184032807005843B72784
:10206000002023AE07A722069387C7A7D18ED8C327
:10207000CEA3B6A301468145EFF00FE26FE08F914A
:10208000EFE20F8F13874186B28610435843B7277C
:10209000002023AEC7A69387C7A74111D8C3CEA3FC
:1020A0001306E100B685EFF02FDF41016FE08F8E60
:1020B000EFE20F8C1387418514435843B727002064
:1020C00023AED7A69387C7A7D8C3B2A3CEA3014692
:1020D0008145EFF06FDC6FE0EF8BEFE26F891387E4
:1020E000C18614435843B727002023AED7A6938751
:1020F000C7A7D8C3B2A3CEA301468145EFF0CFD97D
:102100006FE04F89EFE22F859387C1859843DC43C9
:1021100037240020232EE4A61304C4A7AA89AE8482
:1021200032895CC0EFF04FD711E99C204A86A68522
:102130002310F9004E857EA0EFF00FD66FE0EF84FC
:102140001C352A8703280500142589CF014563F72C
:10215000F50648433385A5023695935735003E98DA
:10216000937675005043814593777600B337F0003E
:10217000135536003E9581476393A50433D5D700A8
:10218000FD57B397C700544793C7F7FFE98F014541
:1021900063E6D702144B63E3F602484F382709CFB2
:1021A0009306F6FF0547B316D700FD8E91C6331789
:1021B000C7003307E040D98F3385A7028280834769
:1021C0000800939835008505B397170175B7034646
:1021D000C5106302060CEFD21FF81384C1871305E4
:1021E00005089385C187EF10601845C51C40370767
:1021F00001016397E700584093871710630BF708B6
:1022000011653724002081451305C5D89304C4AF58
:10221000053F88B0116581451305C5DC1537A8A0B9
:10222000116581451305C5D6213FA8B011658145CB
:102230001305C5DA3137C8A0116581451305C5E01E
:102240000137C8B0116581451305C5E4D53DE8A047
:10225000116581451305C5DEE535E8B01165814599
:102260001305C5E2F13D88A41309C4AF81441304EA
:10227000C4AF116A994993F5F40F1305CAD4C9354F
:10228000A304A90085040509E39734FF22856FD0D4
:10229000DFEF0145EDBF014582800346C51019E619
:1022A00009458280094541016FD03FEEEFD2BFEA78
:1022B0009384418841112A8423A0040023A20400AE
:1022C0009385418813050508EF10400A61DD8347B7
:1022D0003404850499E3938441888357E404835646
:1022E00004050346C4048355A404B3B6F60026854A
:1022F000EF10E01283566405835784058355240547
:1023000003464405131A0501B3B6D700135A0A4110
:10231000268523164101EF1080109319050193D9EA
:102320000941231731019306A405014701490545D9
:10233000914590229C32269610227D8E19C6331626
:10234000E500B367260113F9F70F05078906E312C5
:10235000B7FE8357C4078356A407034684078355F3
:102360006407B3B6D7002685EF10600B034724043B
:1023700085470D8B631DF7061307F007635447016C
:10238000788629A0130700F8E34CEAFE1307F0074C
:1023900063543701788729A0130700F8E3CCE9FEDE
:1023A0002A8742054185930700F86354F500130717
:1023B00000F8B247B72600201386C6B01CC2937738
:1023C00019005CA293572900858B935519007CA2B4
:1023D0008589BA874CB21396070141861307F00727
:1023E0009386C6B06354C7009307F0079EA60145C5
:1023F0005DBDEFD2FFD7553501C501456FD09FD9DF
:10240000372500201305C5B0D5BF7300203001A0CB
:102410002145EF10602311C5EF00903C2145EF10DE
:1024200080247300203051C5EFD29FD41021B714FF
:1024300001402A841346F6FF138504C0058AC1456E
:10244000EF1080351020138504C09305000205822B
:102450001346F6FF058AEF1020341020138504C0C0
:102460009305001009821346F6FF058AEF10C0326B
:102470001020138504C0930500200D821346F6FF3B
:10248000058AEF1060311020138504C0A165118208
:102490001346F6FF058AEF10203010209165138552
:1024A00004C019821346F6FF058AEF10E02E6FD0A4
:1024B0007FCE8280EFD23FCA797185451145EF10FA
:1024C000004D85452145EF10804C85454145EF1075
:1024D000004C85450545EF10804B3714014013052E
:1024E00004800546A14502CA02CC02CEEF10C02AE4
:1024F000130504C0014693050033EF10E0291305CE
:1025000004C00546B165EF10202985650546130511
:1025100004809385050CEF1020288D44414985499E
:102520004C0813050480231A31014ACE26CCEF1043
:102530002014214A4C0813050480231A41014ACE75
:1025400026CCEF10E012F177938707334C08130580
:1025500004C0FC824ACE26CCEF1080118567938799
:10256000070CFC824C08D147130504803ECE26CCD4
:10257000EF1000108545054502D002D202D402D6E4
:1025800002C602C8EF10A04085452145EF1020404B
:10259000930780044C08130504C03ECE231A410162
:1025A000EF10000D8D450545EF10E021A1470544D2
:1025B0003ED00810B1473ED422D602D2EF102002FE
:1025C0009307901168007C862307310122C8EF1021
:1025D000402245616FD07FBB11679306C7E68147F4
:1025E0001307C7E6130600078C226396A50086072B
:1025F000BA978833828085078906E397C7FE828071
:10260000EFD27FB5B7070020130720069387070195
:102610006305E502130780066309E51271478144EB
:102620006317E5021387F188142363930614638EFE
:102630000512238007008D4419A81387C18814232D
:10264000639A060E6383051223800700854493C5B1
:10265000F5FF1314150085899823C18D13F4F50F28
:10266000630D870C37190140130509800546930552
:10267000000880A3EF1040120146930500081305DF
:102680000980EF10601113054006EF10404F13054D
:102690000980054693050008EF1000101305400659
:1026A000371A0140EF10A04D93090A80A3860188D4
:1026B0009D4A1389D18893178401E187014663C33A
:1026C00007000546930500084E85EF10E00C2945EC
:1026D000EF10E04A0146930500044E85EF10C00B51
:1026E0002945EF10C0490546930500044E85EF10BB
:1026F000A00A2945EF10A048834709000604137477
:10270000F40F850793F7F70F2300F900E3F5FAFAC2
:1027100013054006EF10A04613050A8005469305F1
:102720000008EF10600713054006EF1040452685AE
:102730006FD0BFA589C5238007008144CDBF23008A
:10274000070023800700914419B71387E1881423F9
:1027500091E681CD238007008944D5BDE9FD2300A2
:102760000700238007009544DDB5854614A3E1B733
:10277000F9F123000700238007009944C9BDEFD277
:102780003F9FB71401402944138904807D140146FA
:1027900085654A851374F40FEF10000065F805464F
:1027A000856513850480EF00307FB70700207D57D3
:1027B0002388E7002386018823870188A38701886F
:1027C0006FD05F9D6300051CEFD2FF981C31054759
:1027D0000111AA84639BE70038316318F7001835AC
:1027E0009307C0046313F700593FB72700201387EE
:1027F00087B1AC2038233E89138487B16309B700C1
:102800001305100E2CA02EC6C13BB245D53BAC30F3
:102810003C306389B7001305200E2CB02EC66D3BEB
:10282000B245F93B8C301C30638AB7001305000EAB
:102830000CB02EC6EFF05FDAB245D933CC205C2065
:10284000638BB7001305300E4CA02EC6EFF0DFD817
:10285000B245EFF0FFDAEC207C20638BB700130564
:10286000500E6CA02EC6EFF03FD7B245EFF05FD907
:10287000EC307C30638BB7001305600E6CB02EC655
:10288000EFF09FD5B245EFF0BFD7CC305C30638B13
:10289000B7001305400E4CB02EC6EFF0FFD3B24583
:1028A000EFF01FD68C241C24638BB7001305700E29
:1028B0000CA42EC6EFF05FD2B245EFF07FD402C871
:1028C000231A010002CC231E0100130564009307A4
:1028D00089B101461388F40083C8970013879400D8
:1028E000BA86814503C30600631313018545850637
:1028F000E31AD8FE91E51410B296238C16FF050654
:102900008507E31BF5FC81460C23A287014683C89B
:1029100097006393B80005468507E31AF5FE11E6B4
:102920001C10B6972388B7FE85060507E31EE8FC52
:10293000014999493C08CA97882311C5EFF0DFC9BE
:102940008145EFF0FFCB0509E31639FF01499949AD
:102950001C08CA97882311C5EFF01FC88545EFF002
:102960003FCA0509E31639FFA5473D47B386F40082
:102970009022B306F400850790A2E399E7FE056173
:102980006FD0BF808280EFD2AFFBEF10A01C7165CB
:1029900013050520EF106025B707002083A5470128
:1029A000896793870771B3D5F5022545372A00203B
:1029B00037090020930CCAA11304894C9309001114
:1029C000FD15C205C181EFD03F88EFE09FA305450B
:1029D000EFE09FA77D4681451305CAA1EFD04FFCCC
:1029E00005661306465581451305894CEFD04FFB0C
:1029F000EF00B005130ACAA1EF00900BEF1080158D
:102A0000EFF05FAB39220D4B854BEFE00FCE83C764
:102A10001C00638D670103471A00A547E317F7FE03
:102A2000854A130B894C054D8D4DE1A8930A894CBD
:102A30008144094D114CB3873403A29783D76704AF
:102A40008D8B6397770113854A00EFF09F9AC92217
:102A5000B3873403A29783D767048D8B639867018C
:102A600013854A00EFF0AF9AEFF0FF9BB387340372
:102A7000A29783D767048D8B6398A70113854A00BB
:102A8000EFF0EFF4EFF01FD48504938A0A11E3947A
:102A900084FB51B7B3863B03A696DA9683D66604C9
:102AA0008D8A6397A60133058B01EFF09F948D22E9
:102AB000B3863B03A696A29683D666048D8A639856
:102AC000B60133058401EFF08F94EFF0DF95B38604
:102AD0003B038947A696A29683D666048D8A63989F
:102AE000F60033058401EFF08FEEEFF0BFCD850BDC
:102AF0009147130C0C11E39FFBF8850A9547E3847B
:102B0000FAF093074044B384FA02814B138C4400DB
:102B100051B7EFD2EFE537250020130585B2EF005E
:102B200090036FD02FE7635EA00889C685476303D3
:102B3000F50005854205418195E1938721899A2316
:102B40003A95420541858AA3138721891A23930662
:102B5000C01293872189420741870DA0938741893D
:102B60009A233A95420541858AA3138741891A23FE
:102B70009306C012938741894207418763D3E600D9
:102B800096A38A231307F00793170501C183636E89
:102B9000F7061305F00F9DC309651305057133454D
:102BA000F50219817D154205418109CA1947AA8795
:102BB0006373E50099471395070141811375F50F7C
:102BC00082800DCD99C6FD576305F50089473345D1
:102BD000F5024205418191E9138721891E2333853E
:102BE000A740420541850AA385B7138741891E2363
:102BF0003385A740420541850AA385BF81E5239916
:102C0000018899B7239A01888DB79307F00769B7B0
:102C10006303051AEFD22FD403170500411163593E
:102C2000E00E938701899423E206E1866390061003
:102C300023990188854694A32A8413158701814628
:102C4000014681456185C535B7070020A388A700E7
:102C500003052400814601468545F13503064400FD
:102C6000B70700202389A700371501401336160047
:102C7000A165130505C0EF003032938781899C233D
:102C8000A30701008314840093F7F70F1389818948
:102C90009DE3830964008547639FF9003725002081
:102CA000B54705469305F100130585B2DC87EF00B3
:102CB0000071230039018347090005476319F702B2
:102CC000830764008DE7B7290020B94705469305BF
:102CD000F100138589B2DC87EF00606E054693052D
:102CE000F100138589B2EF00806D2300090083177E
:102CF0008400A5EB03065400371501409165133697
:102D00001600130505C0EF00302941016FD0EFC751
:102D100011CF9387018994230546E206E1866397E4
:102D2000C600239901882380070039B7831725003F
:102D3000635CF000938711899423E206E186E39DAA
:102D400006EE239A0188FDB5E38807EE9387118983
:102D500094230546E206E186E390C6EE239A0188B5
:102D6000D9B713D7F441B98C998C93F4F40F63530A
:102D7000F002AD47DC870149B7290020E30C99F642
:102D800005469305F100138589B205090D2D1379C8
:102D9000F90FEDB79D47DC870149B7290020E30B08
:102DA00099F405469305F100138589B20509012DB3
:102DB0001379F90FEDB78280EFD28FBB938721890A
:102DC0009E2313846189C207C1876358F00E1C20BB
:102DD00093842189E207E18791EB37150140014691
:102DE00093050010130505C0EF00101B1C200547BC
:102DF000E207E187639AE700371501400146C145C4
:102E0000130505C0EF0050191C200947E207E187B0
:102E1000639BE70037150140054693050010130535
:102E200005C0EF0070171C200D47E207E187639A89
:102E3000E700371501400546C145130505C0EF0001
:102E4000B015138701891823938701896207618769
:102E500035E318207D176207618718A09A20854600
:102E60007D17420741879AA0982362076187631AFA
:102E7000D70018208D466207618763D4E6002300DF
:102E800004009C23E207E18781EB1C20E207E18735
:102E900063D407008D471CA0B70700209387170154
:102EA00098231377F70F09EFB70700400547DAB704
:102EB0006FD04FAE1820050779BF23000400E9BF8B
:102EC0009C23370700405EB7E5B7EFD26FAA938720
:102ED00041899E2313847189C207C187635BF00E09
:102EE0001C200D4793844189E207E187639BE7003B
:102EF00037150140054693050002130505C0EF0094
:102F0000B0091C200947E207E187639BE7003715FA
:102F10000140054693050020130505C0EF00D007CA
:102F20001C200547E207E187639BE7003715014056
:102F3000014693050002130505C0EF00F0051C20B3
:102F4000E207E18791EB3715014001469305002028
:102F5000130505C0EF0050041387118918239387C8
:102F60001189620761873DE318207D176207618739
:102F700018A09A2085467D17420741879AA098237A
:102F800062076187631AD70018208D466207618740
:102F900063D4E600230004009C23E207E18781EB71
:102FA0001C20E207E18763D407008D471CA0B70708
:102FB00000209387270198231377F70F11EFB71796
:102FC000004005472396E7826FD0CF9C1820050765
:102FD00071BF23000400E1BF9823B7170040DDB79D
:102FE000EFD26F97371401404111130504C0A307B6
:102FF0000100EF00A078AA8437250020054693053C
:10300000F100130585B29D2601469165130504C0A4
:10301000EF0080789C8785EF0546C145130504C005
:10302000EF008077054693050002130504C0EF000A
:10303000A076054693050010130504C0EF00C07587
:10304000054693050020130504C0EF00E07498873F
:10305000AD47631FF702371401400146C145130510
:1030600004C0EF006073014693050002130504C01D
:10307000EF008072054693050010130504C0EF00B1
:10308000A071054693050020130504C0EF00C07031
:1030900098879D47631BF702371401400546C145D9
:1030A000130504C0D52D014693050002130504C085
:1030B000E525014693050010130504C0F12D0546D2
:1030C00093050020130504C0C12D9887B547631BE5
:1030D000F702371401400146C145130504C06D2DA8
:1030E000014693050002130504C07D25054693059E
:1030F0000010130504C04D2501469305002013055B
:1031000004C0592D9887B947631BF7023714014053
:103110000546C145130504C041250146930500023B
:10312000130504C0952D014693050010130504C036
:10313000A525014693050020130504C0B12D3714C1
:103140000140930904C00549A1454E85192DE31D91
:1031500025FFA685130504C0A92D41016FD0EF827C
:10316000B71702409843B706FFF8411113671700DD
:1031700098C3D84337060200758FD8C39843B70663
:10318000F7FEFD16758F98C39843B706FCFFFD1632
:10319000758F98C3D843B70681FFFD16758FD8C3C6
:1031A00037079F0098C702C402C69843C166558F6F
:1031B00098C3B716024005679C42F18F3EC6A247EE
:1031C00085073EC4B24781E7A247E397E7FEB717FA
:1031D00002409C431397E7006357070685473EC6A6
:1031E00032478547631FF704B7170240D843B70635
:1031F000C1FFFD16D8C3D843D8C3D84313670740CF
:10320000D8C3D843758FD8C3D843B7063D00558F70
:10321000D8C39843B7060001558F98C398439316B7
:103220006700E3DD06FED843B7160240719BD8C3A2
:10323000D84313672700D8C32147DC42B18BE39EF4
:10324000E7FE4101828002C661BFEFC27FF2011139
:103250008545054502CA02CC231E010002C602C8EC
:10326000B12795679387F7913ECA4C089307803E34
:10327000370500403ECC912F054685453705004077
:10328000EF00C07C9307C0427C8685475C8768005E
:1032900085473EC8B92B854537050040EF0080794A
:1032A000B7E700E0056723A2E71005616FC09FEE56
:1032B000EFC21FEC01118545114502CA02CC231E45
:1032C000010002C602C8DD259567371400409387C8
:1032D000F7913ECA4C089307803E130504803ECC0C
:1032E000ED2505468545130504808D279307E032BB
:1032F0007C8685475C87680085473EC8DD29854513
:1033000013050480052FB7E700E0116723A2E7103B
:1033100005616FC03FE8854537050040892719C51D
:10332000EFF09FA9854537050040B1277300203095
:10333000411122C637140040854513050480052736
:1033400019C5EFF09FB88545130504802D27324439
:10335000410173002030930700081EA59307B500B4
:1033600023220500230505001CC182803825AA8779
:1033700009C72385070032858280054738A5814625
:10338000139506014181E376C5FE03D86700DA2371
:10339000630407039843429708233387D50008A3A3
:1033A000FA238A27050742074183FAA36314E5003D
:1033B000239307008506E9B7238507008280382517
:1033C000AA8709C72385070032858280054738A56B
:1033D0008146139506014181E376C5FE03D8470077
:1033E000FA23930818006387E80003D387006396E5
:1033F000680001E72385070082803387D500082312
:103400009843429708A3DA238A2705074207418396
:10341000DAA36314E5002392070085065DBF13D885
:1034200035001378F80F9D89B30805019307F00F55
:1034300013F7F50FB397B70083C50800A148B38809
:10344000E840ED8F93F8F80FB3D7E74063651607B0
:1034500093051800130886FFC207429793F5F50FEE
:10346000C1831377F70F9D4E130FF00F214E39CB09
:103470001308F00F63E8EE003308EE4033580F41B5
:103480001378F80F13831500AA958C211373F30F8B
:103490003378B80033181801C297C207A108C18356
:1034A00093F8F80FBA856373EE00A1450D8F13777B
:1034B000F70F9A856DBF05453315C5007D15E98F5A
:1034C000C207C18385C21307F6FF05463316E6001F
:1034D0004206418233F7C70011C7D18F0606420664
:1034E000418265FE3E85828001A001A001A001A06D
:1034F00001A001A001A001A001A001A001A001A0C4
:1035000001A001A001A001A001A001A001A001A0B3
:1035100001A001A001A001A001A001A001A001A0A3
:1035200001A001A001A001A001A001A001A001A093
:1035300001A001A001A001A001A001A001A001A083
:1035400001A001A001A001A001A001A001A001A073
:1035500001A001A097D1FF1F9381C12B172100204B
:10356000130141AA171500001305859E97D5FF1F6B
:10357000938545A91386818763FAC50083220500D8
:1035800023A0550011059105E3EAC5FE1385818747
:1035900097E5FF1F938545626377B50023200500FB
:1035A0001105E36DB5FEFD42739002BC8D42739030
:1035B00042809302800873A0023097D2FFFF93826B
:1035C000E2A793E2320073905230EFF07FB997F2A6
:1035D000FFFF9382823B7390123473002030584176
:1035E000032805004C4537060140930706403E97E7
:1035F0009346F8FFB1C583250640F58D2320B640DC
:10360000D043F18ED4C31443B3E6060114C318416A
:1036100090479346F7FF758E90C7D047F18ED4C779
:10362000144541466399C6009447D98E94C7D44740
:10363000558FD8C78280B6979443558F98C38280A0
:103640001C43F58F1CC38280B707014013870740D6
:1036500083A70740584B698F09C77D8D3335A0007C
:10366000828001458280B707014023AAA74082805B
:103670009C4513F7070113F8F70001C7D8413368D9
:10368000E80037270240145B3707000F758F4DEBBA
:103690008546A38CD188371701406315E5009A2130
:1036A00035839AA18E2113F7F50F39C3184181464E
:1036B000854E3D4F930F800293028004214E339636
:1036C000DE00B3F8C5006311160393982600331388
:1036D0001F011343F3FF3377E300B318180133E7F7
:1036E000E8006397F70750C98506E39AC6FD18C13D
:1036F0001307F00F6375B70454412146854E3D4FC3
:10370000930F800293028004414EB398CE0033F7AA
:1037100015016392E8021317260001173313EF0017
:103720001343F3FFB376D3003317E800D98E6395C4
:10373000F703232A15010506E319C6FD54C182804B
:1037400037170140E310E5F603C7918921DF81BFF8
:10375000E39C57F810C949BFE39F57FC2328150184
:10376000D9BFB71701406316F50083C7918991C38C
:10377000B58108456D8D3335A0008280B7170140B3
:10378000631AF50083C7918991C7484536054205FC
:10379000418182804845E5BFB71701406316F500B7
:1037A00083C7918991C3B58119C20CC982804CC964
:1037B0008280B71701406316F50083C7918991C3D2
:1037C000B5814CC5828013F7C50F93F73500B70557
:1037D0000140BA9594458A073D473317F7001347D0
:1037E000F7FF758F98C598453315F500598D88C535
:1037F00082809387C1899443182181E63C219207F6
:1038000021A894430546639FC6023C2110319207CC
:103810006314D60093E707F8B7E600E093F7F70FD5
:10382000BA962380F6408546935757003397E600B3
:103830005441A5C2938707048A07B7E600E0B6970C
:1038400098C382808C4389466391D50214313C2110
:103850006365D6008A06B6975DB79386E6038A0647
:10386000B69793F7F70F920775B790438D46631C91
:10387000D60014313C216364D6008606E9BF9386E6
:10388000C6078606F1BF94439147E39EF6F81C31C4
:10389000BDB7938707064DB7B7170240D843B706A1
:1038A00040FFFD16758FD8C3D8435A05598DC8C33C
:1038B0008280371702405C439146B18B6385D70005
:1038C000A1466382D706B7177A00938707201CC1E9
:1038D000371602405C423707002013070700918328
:1038E000BD8BBA9794231C41B3D7D7005CC1544217
:1038F000A1829D8ABA969422B3D6D70014C55442A9
:10390000AD829D8A36971823B3D7E7005CC558422D
:103910003983937637001387818036971823B3D77E
:10392000E7021CC982805C435843C166C983BD8BD2
:10393000758F8907C5466393D700C94701EF37479D
:10394000024003270780418B09CF37177A001307FE
:10395000072021A83717024058439316E700E3D603
:1039600006FE37173D0013070790B387E70285B7B8
:1039700099C5371702405C4B5D8D48CB8280B717E5
:103980000240D84B1345F5FF798DC8CB828099C58D
:10399000371702401C4F5D8D08CF8280B717024059
:1039A000984F1345F5FF798D88CF828099C53717D9
:1039B00002405C4F5D8D48CF8280B7170240D84FE0
:1039C0001345F5FF798DC8CF82801E21373701401E
:1039D000130707C0C207C1836304E502370700402D
:1039E0006300E50213070740630CE500371700404A
:1039F000930607806306D500130707C06316E5002A
:103A0000BA2193F7F7F8D98FFA2193F7F7CFC207C6
:103A1000C183D98F1EA1DE215EB59E211EB5B737A9
:103A20000140938707C06314F5009C251EB98547A4
:103A30005EA982801E2189C593E717001EA182809E
:103A4000C207C183F99BC207C183CDBF5E2501C6F2
:103A5000DD8D4EA5828093C5F5FFFD8DDDBF1E294E
:103A60004A25ED8F4205418189C76D8D3335A00010
:103A700082800145828093C5F5FFC205C1810EA9F0
:103A80008280EFC2EFEE1629F577FD17F58FF6214C
:103A9000DA257971D58F1EA95625FD779387379F33
:103AA000F58FD6212A842EC6D58F9625D58FB6259B
:103AB000D58F5EA55E29C207C18393F7F7CFD98F53
:103AC0005EA96808EFF0FFDEB747014093870780E3
:103AD000B245631AF404A25756246547B387E70238
:103AE000C206C186984163D20604060752244206E4
:103AF000B3D7E702130740064186B3D6E702B3F710
:103B0000E7029206635506028E0793872703B3D711
:103B1000E70213F77700B367D700C207C1831EA47B
:103B200045616FC02FE7925745BF0A07C1B792079B
:103B300093872703B3D7E702BD8BD58FF9BF91C514
:103B40005E250967D98F5EA582805A25F977FD1712
:103B5000F98FD5BFB707002083A7470137177A0031
:103B600013070720B3D7E70293F7F70F2381F18AF2
:103B70001307803EB387E7022390F18A8280B7F76C
:103B800000E0D8438146799BD8C303C7218A330616
:103B9000A70290CBD4CB98431367070198C39843EF
:103BA0001367170298C3D843058B75DF9843799B39
:103BB00098C38280B7F700E0D8438146799BD8C389
:103BC00003D7018A3306A70290CBD4CB984313675F
:103BD000070198C398431367170298C3D843058B0E
:103BE00075DF9843799B98C38280EFC26FD82A848F
:103BF0001165011185451105EFF07FD9930700206C
:103C00007C82371501408D473EC44C00E1471305C7
:103C100005803EC6EFF0DFA522C837440140B70754
:103C200008000C08130504803ECC02CA231E0100C4
:103C3000EFF03FE5854513050480EFF05FF0056187
:103C40006FC04FD593F5F50F2A966314C500014553
:103C500082801C21E38EB7FE0505C5BFB3C7A50052
:103C60008D8B3307C50081E78D4763EDC700AA87B9
:103C7000637EE508942185078505A38FD7FEE3EBD6
:103C8000E7FE828093763500AA8789CA942185074A
:103C90008505A38FD7FE93F63700C5BF9376C7FF80
:103CA000138606FE63F0C70683A3050083A24500C2
:103CB00083AF850003AFC50083AE050103AE4501A8
:103CC00003A3850183A8C5019385450223A077003E
:103CD00003A8C5FF23A2570023A4F70123A6E701E9
:103CE00023A8D70123AAC70123AC670023AE17017D
:103CF0009387470223AE07FF75B79041910791055F
:103D000023AEC7FEE3EBD7FEE3E6E7F682800000D2
:103D1000641D0000901C0000601E0000901C00004C
:103D20008C1E0000EC1E0000201F00002A1F000057
:103D3000901C0000901C0000901C0000901C0000D3
:103D4000341F00003A1F00003E1F00008E000020BC
:103D500008000000000600000000000065000000F0
:103D60000000000065000000010000008C00002041
:103D7000010000000200000000000000010000003F
:103D80000000000001000000010000008C00002085
:103D90000100000000000000000000000100000021
:103DA0000000000001000000010000008C00002065
:103DB00001000000030000000000000001000000FE
:103DC0000000000001000000010000008C00002045
:103DD00001000000010000000000000001000000E0
:103DE0000000000001000000010000008C00002025
:103DF00001000000060000000000000001000000BB
:103E00000000000001000000010000008C00002004
:103E1000010000000400000000000000010000009C
:103E20000000000001000000010000008C000020E4
:103E30000100000007000000000000000100000079
:103E40000000000001000000010000008C000020C4
:103E5000010000000500000000000000010000005B
:103E600000000000010000000100000035001E01FC
:103E70001F02200321042205230624072508260902
:103E8000270A2D0B2E0C310D620F14101A11081277
:103E9000151317141C1518160C17121813192F1AAE
:103EA000301B591D5A1E5B1F0420162107220923AF
:103EB0000A240B250D260E270F283329342A2844DF
:103EC0005C2D5D2E5E2F88301D311B320633193478
:103ED000053511361037363885383739383A5F3D71
:103EE000603E613F2C402A412B4258439E2B29457E
:103EF0004C46564A524C514D4F4E504F3A503B5102
:103F00003C523D533E543F55405641574258435909
:103F1000545C555D575E455FE160E5613962E06381
:103F2000E264E665E366E767655F633C5368460EF7
:103F3000471C482C4A3B4B3F4E1F4D49494B005BA9
:0C3F4000006A006B006C006D006E006FEA
:103F4C000000000001020304010203040607080933
:103F5C00FF0101000044950802040608020100005C
:103F6C000000000080060002000004008006000132
:103F7C000000120080060003090404000005000084
:103F8C000000000000090000000000008106002273
:103F9C00000000002109000200000100210A0000BD
:103FAC00000000002301000000000000A006002912
:103FBC0000000200A3000000000004002303000026
:083FCC000000000000000000ED
:00000001FF
